:020000040800F2
:100000006811002049010008A9470008873E000840
:1000100000000000000000000000000000000000E0
:100020000000000000000000000000002D4A000851
:100030000000000000000000B94900082F4A000835
:100040005B0100085B0100085B0100085B01000820
:100050005B0100085B0100085B0100085B01000810
:1000600000000000BD1B0008CD1B0008A51B0008F8
:100070005B0100085B0100085B0100085B010008F0
:100080005B0100085B0100085B0100085B010008E0
:10009000000000005B0100085B0100085B01000834
:1000A0005B0100085B0100085B0100085B010008C0
:1000B0004D5300085B010008000000000000000034
:1000C00000F002F800F030F80CA030C8083824180E
:1000D0002D18A246671EAB4654465D46AC4201D180
:1000E00000F022F87E460F3E0FCCB6460126334282
:1000F00000D0FB1AA246AB46334318478C6200007F
:10010000AC6200000023002400250026103A01D331
:1001100078C1FBD8520700D330C100D50B607047BF
:100120001FB51FBD10B510BD01F02EF91146FFF728
:10013000F7FF05F033FE01F046F903B4FFF7F2FFD5
:1001400003BC01F077F900000748804707480047E3
:10015000FEE7FEE7FEE7FEE7FEE7FEE704480549A7
:10016000054A064B70470000CD4A0008C100000850
:10017000680B002068110020680D0020680D002029
:10018000FEB5054610460C46184373D0AE468C4665
:100190000020AD1A01469C4167D366460027012422
:1001A0003D46B61A9D4102D313463A462124654680
:1001B00076462F04360C3E432D0CB61A9D4104D3CF
:1001C000150C1B042B4312041034654676462F068B
:1001D000360A3E432D0AB61A9D4104D3150E1B0262
:1001E0002B4312020834654676462F0736093E43F4
:1001F0002D09B61A9D4104D3150F1B012B43120183
:10020000241D65467646AF07B6083E43AD08B61ACC
:100210009D4104D3950F9B002B439200A41C65467F
:100220007646EF0776083E436D08B61A9D411AD30D
:1002300092185B41641C16E00018764665464941F9
:10024000B71A9D410191009009D36046B11A9841B7
:100250008E468446009801990025401C6941DD07BF
:1002600052082A435B08641EE6D57246634603B013
:10027000F0BDFFE700200146C046C0462A4623469F
:10028000F5E701E004C0091F0429FBD28B0701D563
:100290000280801CC90700D00270704700290BD073
:1002A000C30702D00270401C491E022904D38307F1
:1002B00002D50280801C891EE3E70022EEE70022BF
:1002C000DFE7002203098B422CD3030A8B4211D3B0
:1002D00000239C464EE003460B433CD400224308D7
:1002E0008B4231D303098B421CD3030A8B4201D3C7
:1002F00094463FE0C3098B4201D3CB01C01A52415F
:1003000083098B4201D38B01C01A524143098B42AE
:1003100001D34B01C01A524103098B4201D30B0197
:10032000C01A5241C3088B4201D3CB00C01A5241BC
:1003300083088B4201D38B00C01A524143088B4281
:1003400001D34B00C01A5241411A00D2014652411A
:10035000104670475DE0CA0F00D04942031000D339
:100360004042534000229C4603098B422DD3030A8E
:100370008B4212D3FC22890112BA030A8B420CD39E
:10038000890192118B4208D3890192118B4204D3C7
:1003900089013AD0921100E08909C3098B4201D347
:1003A000CB01C01A524183098B4201D38B01C01A81
:1003B000524143098B4201D34B01C01A52410309F8
:1003C0008B4201D30B01C01A5241C3088B4201D3A7
:1003D000CB00C01A524183088B4201D38B00C01A54
:1003E0005241D9D243088B4201D34B00C01A52412B
:1003F000411A00D20146634652415B10104601D3B8
:100400004042002B00D54942704763465B1000D341
:10041000404201B50020C046C04602BD704770474B
:10042000704700000246C80FC00781434B0030B53B
:100430004B405B009B0D20D01923DB06C91801231C
:100440001B05994220DB0324A40704251346AB4077
:100450000BD3002B04D1EB0613409B00E34204D4E2
:1004600001246407002312195941FF231B059942F7
:100470000BD2C9000143500F09E0CB0204D5014360
:100480000803024305D0054830BDFF21C9050843D4
:1004900030BD084607210905884330BD0000C07FF4
:1004A000F0B50C46871A9C410D46861A9D4103D231
:1004B000C01BA141D21963410D0D1F0DC94EEC1B8C
:1004C000AE435CD07F057F0D0026002F51D02D0557
:1004D000AC46A943DD020123ED0A1B051D43202381
:1004E0001B1B24D41746E740381871412F46E740BC
:1004F000CC199D402818314661410C0D27D161442B
:100500009A4013D50023401C594152000ED1400897
:10051000400001224B005205D34207D3052040077B
:10052000C14201D5B04900E0B0493046F0BD6B0092
:10053000002A00D001229A181F23203C1B1B01D542
:10054000002302E0E540281871410C0DD7D00124AA
:1005500024050919C407CD0740084908E40F2843BA
:100560006144002CD5D00024401C61419A40D0D178
:10057000CDE76A05520DD9D1C90FC907D5E79C4D02
:100580004E00002801D0012400E0002434195F004F
:10059000002A01D0012600E00026BE19954FAC428A
:1005A0000CD8AE420AD8B44206D001256D05EC4203
:1005B000BCD010461946F0BD9942FCD00020394607
:1005C000F0BDF0B51FB40C460F46811A9F41254679
:1005D000861A9D4106D20125ED076F40401ABC41A5
:1005E00052187B41210D1E0D8D1BAC467D4D8D4358
:1005F0007ED075056D0D7CD00D05AE46AC431B035A
:100600001B0B794D52429D41202366469B1B14D300
:100610001746F740381800260090744160462F4670
:100620000741E41900989D402818664116D4714688
:1006300071189A4025D5012320E093182A466A4173
:100640005200002B00D0521C1E23203E9B1B002B6F
:1006500061DD3541EE1728186641E8D5001876416E
:100660005B1C9A4000D3401C4B05F3181524E34053
:1006700010D3002B52D071467118D30FC01802D37B
:10068000491C05B0F0BD0123DB079A42F9D14008AF
:100690004000F6E701225205B21801D1002853D0DC
:1006A0000123CC0ADB029943891E002A08D1020CDF
:1006B00003D0020C0004103902E002460020203969
:1006C0000023550B05D112020823550B01D152010D
:1006D0000D23550C01D112011B1DD50C01D1920027
:1006E0009B1C150D01D152005B1C2025EE1A01E068
:1006F0002CE022E00546F54015439840CA1AE10770
:1007000069181305C918002ABBDA03204007081826
:10071000C10FC9070FE071466118B2E7F107400841
:100720000843711071444A000CD001235B059A42C2
:10073000A7D2C90FC9070020A3E74905490D26D153
:10074000002001E00028F4D100219AE7284D66003E
:10075000002801D0012100E0002171185F00002A6B
:1007600001D0012600E00026BE19224FA94210D870
:10077000AE420ED8B14208D001256D05E94206D03F
:100780001946A802414010467BE79C4201D0214611
:1007900077E70020394674E710B50C465C4005D574
:1007A0000124E4076340FFF70CFF10BDFFF778FE5C
:1007B00010BD30B40C465C4004D50124E40763400E
:1007C00030BC6DE630BCFCE670B50124E407614046
:1007D0000D465D4002D4FFF763FE70BD6340FFF736
:1007E000F0FE70BDFF0700000000F0FF0000F07F8A
:1007F0000000E0FF0000F87FF0B5F94D0C091E097C
:100800002C402E402F468BB0A7437DD0B543FCD063
:10081000002E7AD0002CFCD00D465D40ED0F254314
:10082000AC1BFF25AD0464190894C502440DC90230
:100830002143500DDC0204430120C007014304435F
:10084000D2020191200C110C00958C460104234624
:100850008B430A9161460904E24D8A430991010ADA
:100860007D4449198039097805464D4301266D18A4
:10087000F605751B6943C90C640B891C4C4364184D
:10088000B5012C1B250C2E04B4434C434D43210CC5
:10089000691889090591009DE90701D00121C9075F
:1008A00004912C4601996708CD072F434C08059DFC
:1008B000E10B4D432D0C29466646754302950D46C6
:1008C00045432E46029D7D1BB44100950D465D4378
:1008D00001942C0C2F040D465543AE462D0C3D4380
:1008E000029503947546049C2D04641B049406D25F
:1008F000029C039D641C002675410395029401AC83
:1009000070CC009F7D1B01E03EE162E1B44109042F
:100910000095079101940599A4086143090C0C46C0
:100920004443650BE7040C4666467443A646640BD5
:100930003C43039502947446049DE4042C1B0494E8
:1009400006D2029C039D641C002675410395029407
:1009500001AC70CC009F7D1BB44101940C465C43FC
:100960000095650FE7000C465443A646640F3C43D0
:10097000039502947446049DE4002C1B049406D253
:10098000029C039D641C002675410395029401ACF2
:1009900070CC009F7D1BB441AE09AF06049DC90019
:1009A000AD092F43049DA406AD060495079D34436D
:1009B00069180791059DE10B4D432D0C29466646AC
:1009C000754302950D4645432E46029D7D1BB4415D
:1009D00000950D465D4301942C0C2F040D465543A4
:1009E000AE462D0C3D43029503947546049C2D04A0
:1009F000641B049406D2029C039D641C002675416E
:100A00000395029401AC70CC009F7D1BB44101940E
:100A10008C050694079C890A611800950791019C32
:100A20000599A4086143090C0D464543680BEF0482
:100A30000D46644665436C0B3C43049FED047D1BEF
:100A4000AC4602D20025641C6841009E019D371B04
:100A500085410846584301950C46460FC50054434E
:100A6000600F28436546E4002C1B02D20025401C81
:100A70006E41019D3F1AB5412846BD0980062843B5
:100A80008446A009BF064E020699A40676180743BD
:100A9000079D002068410A99079019430020099B8F
:100AA00000906046FF1913434041E20F64003A434F
:100AB000A4460446D71A8C41A04203D901200090D5
:100AC00020463A46C70F941840416246D20F22434F
:100AD000644664000494009CBE466400D71AA44691
:100AE000044602978C417746002F01D1A04204D9D9
:100AF0006046401C8446029A2046C40FA6469418BD
:100B00004041049A0546D20F224364466400D31A3A
:100B10008D417146002901D1A84202D928461A46C2
:100B2000641C10430122002800D0164361020020FB
:100B3000079B891904465C410223002C02DB4918FB
:100B400013466441089DCE0A2D145D194B056705B7
:100B5000E10A2C050D1908993E43C9076940002B8D
:100B600008D0934006D30022761C5141002B01D1BE
:100B7000760876001C4A002D43DB154241D0AA437B
:100B80003FD030460BB0F0BD06180D464D41174C16
:100B90007642AC411AD395181C465C41134A6D420B
:100BA000A24113D3012252054C00D4420AD15C0069
:100BB000D4420BD04B4002D592021143E2E74900E8
:100BC0004908DFE75940C90FC90718E00020084964
:100BD000D8E7054801420DD10342F7D0F2E7000003
:100BE0000000FF07145A00000000F07F0000E0FF43
:100BF0000000F87F114859400143C01241400020D5
:100C0000C0E70123089A9B069A4205DC032252079B
:100C10008918C90FC907B5E7052252078918074A7D
:100C20001143D2125140ADE770B515461C4602463D
:100C30000B4628462146FFF7DFFD70BDFFFFFF7F13
:100C4000F0B58B4C0F09254689B0BD437BD01D09FB
:100C50002646AE43FAD00E465E402740F60F3E438E
:100C6000254071D024012142FBD0FF24AD19A404FA
:100C70002D1B039501252D05DB02DB0AC9022B4341
:100C8000C90A29431E010901040F130F050121435D
:100C90001701880B820391432D098C46A90B1E4333
:100CA0008A039543B30B9A0396433F09BA0B940307
:100CB000A74302962E467E430497B6464E19D7198F
:100CC0000C460196544305977E43371B7646BF1B5F
:100CD0003601B646BE0B361900967646BC04371967
:100CE000009C01D3641C00946400002F01D00126F5
:100CF0003443029E049F754366467E430496760005
:100D000034196E0034190094029C019E1C1966432C
:100D1000751BAE46069465464519059C05956C43C2
:100D2000594375460891691A0191049E0146514341
:100D3000A41B0491611A009C0791E10605D061098A
:100D40000122114302E072E06EE06109089D002774
:100D50002C0A2D066918049D7C412A0A2D06691863
:100D6000019D6241AC0DAD026D185441079A910D81
:100D7000920255196141029A644658435443069BB6
:100D8000059A5A43121A131B9A0E9B015B187A415B
:100D9000010B0005C3185141220A200644195A418B
:100DA0009A4200D2491C01204002814203D31523FC
:100DB0000226F64302E014230326F6432020C51A38
:100DC000A9401746AF40DA400A4320460399D8406D
:100DD0000914731819055118039A3843D207514062
:100DE000AC4009D00122944006D30022401C51415E
:100DF000002C01D1400840001E4A934212D3012228
:100E000003989206904207DB0520400709181A480C
:100E10000143C012414004E0032040070818C10FFD
:100E2000C907002009B0F0BD0020F107FAE7051856
:100E30000C464C4111486D42A04115D394181A46F6
:100E40005A410E48644290410ED301204A004005A9
:100E5000824209D35A00824206D35940C90F084A38
:100E6000C90700201143DDE700200649DAE700004A
:100E70000000FF07FE070000FFFFFF7F0000E0FF0C
:100E80000000F07F0000F87F70B505464800440D73
:100E9000124B0020002C0AD0634008D09A4206DA98
:100EA0006642B24203DD12054019514170BD002C6B
:100EB00008D0002B09D0C90FC907002AF6DB084A61
:100EC000114370BDC90FC90770BD28460A031043FE
:100ED00002D00020034970BD284670BDFF07000006
:100EE0000000F07F0000F87F0121C90501234118AF
:100EF00042001B06D3185B0E0AD0C1100722D2068F
:100F0000891840075242D14201D5520089187047D2
:100F1000090208D50146002A03D0C10FC9070020E5
:100F2000704710467047420202D0002002497047C5
:100F3000072109050143F4E70000F87FF0B5FF251C
:100F40002D04C609C209FF2704462E400137CB09EC
:100F50003E4348402A402B400746002A6BD0002BD6
:100F600069D0AA4267D0AB4265D0002800DA324689
:100F70000125ED0529432C4309022002090AD21A52
:100F80004B0C7F24E31A434C000A7C44E35C7D2431
:100F90002404121914145B00A218884201D3521CB5
:100FA00000E0400049420C465C4324115C43DB01F5
:100FB0006415E318040A5C43C502200D0C46444343
:100FC0006419250A5D432303EC0C0D4665430003B9
:100FD0000019EB184C42A34201D35B18401CD40506
:100FE0002018002B07D05B00C91804D3401C00292F
:100FF00001D1400840003F2189048A4209D3002AD8
:1010000008DC1106090F04D0032149074018C00F5E
:10101000C007F0BD01224100120689187F22520646
:101020009142F6D205214907C84201D59010F0BD82
:10103000FF20C005F0BD002F00DA32461648AA4254
:1010400007D2AB4205D21902090E17D0F80FC0071C
:10105000F0BDFF2563002D06AB42F9D84900A94237
:10106000F6D8AB4201D1A942F2D0A94201D1002168
:1010700001E061004908D0050843F0BD1102090EE6
:10108000FBD0FF200243D005F0BD0A4601461046C2
:1010900054E700006A5300000000C07F10B501460D
:1010A0009E240002CA15A307002A02D01843002A72
:1010B00004DBA21A002A0CDDD04010BD1206120E6D
:1010C00001D140004008A21A03D4D0404042002879
:1010D000F3DDFF2248001206904201D9002010BD26
:1010E000C817C043584010BD0102C21504D00123E7
:1010F000DB071943002A0ADB9E239A1A02D408460A
:10110000D0407047FF2241001206914201D90020D1
:101110007047C017C04370471F22030C02D10F2233
:1011200000041CD0030E01D10002083A030F01D1C4
:101130000001121F830F01D18000921E002801DBE5
:101140004000521ED2055118021251181922904027
:1011500004D3491C002801D14908490008467047BA
:10116000C10FC90700D04042012292071143D3E7C3
:1011700001218907D0E7000010B5FF22C30D1340FD
:1011800009D05A4007D0914205DA5C42A14202DD03
:10119000C905081810BDC40FE407002B06D0002AAB
:1011A00006D0002902DBFF20C0050443204610BD05
:1011B0004102FCD0004810BD0000C07F10B500F017
:1011C0003BF8006810BD10B5044600F035F8046027
:1011D00010BD000010B5FF231B0644009C421DD823
:1011E0004C009C421AD80346124A0B4307D4401ABB
:1011F00002D3EFF3008010BDEFF3008010BD081A9A
:1012000006D2EFF3008001219043C907084302E0B2
:10121000EFF30080904380F3008810BD0D231B0482
:101220001A4204D01146002000F00AF810BD00F068
:101230009FF810BD0000009000487047080B002088
:10124000C80212D54803400F002804D0C803C04389
:10125000012188407047EFF300800001000903215D
:101260000907084380F3008870470020704700009A
:10127000F0B53D4B02460C461C400020002C63D0CC
:101280003A4D8B4366D000296BDB0B0D1D05A9433E
:1012900001252D0529430124FD33E34001D3921894
:1012A0004941FF3381339C468B02940D0121234336
:1012B00089074C42920200271B198C105D1A04D436
:1012C0002D1B02D42B466500491992185B41640816
:1012D000F4D15C1A08D40125ED07EE1755197441B5
:1012E00002D42A462346491C94185B4101229207E6
:1012F0001D46E61B8D4106D4B61A854103D42B4604
:10130000550034467F1924195B415208802AEFD1D9
:10131000234300D0022338460A22D04001D30122C1
:1013200013438A0510436246890A12058918002B67
:1013300009D00122D34002D30022401C5141002B8E
:1013400001D140084000F0BD0B03134307D0C90F83
:10135000C907F0BD0803104303D1002901DB104683
:10136000F0BD00202946F0BD0000F07F0000F87FAE
:1013700010B5024800F02FF810BD00000000C07F3B
:1013800000487047080B00207546FFF7F9FFAE468E
:10139000050069465346C008C000854618B020B510
:1013A000FEF7DCFE60BC00274908B6460026C0C533
:1013B000C0C5C0C5C0C5C0C5C0C5C0C5C0C5403D0D
:1013C00049008D46704710B50446C046C0462046C9
:1013D000FEF7B3FE10BD10B50C461107090F092921
:1013E00004D00A290AD008290CD104E011460820AB
:1013F000FFF726FF06E0510606D501E0510601D5AC
:101400000120C007214610BDD10607D501010909F9
:10141000CC084907000E0006044309E0410F2002F2
:101420004907000A0143200E00061D22D141014355
:101430000846E7E701491820ABBEFEE72600020098
:10144000704730B58C180278401C13071B0F01D170
:101450000378401C120906D10278401C03E005788D
:10146000401C0D70491C5B1EF9D101E00B70491C3A
:10147000521EFBD1A142E6D3002030BDF1B5774822
:10148000774C84B00168A161816821624068206165
:101490007448754980884018FFF762FE734904F06C
:1014A000AFFD734E744B30607249E2690025DF680E
:1014B0008A4205DB0121C905884201DB356005E070
:1014C0006E49884204DA6E49884201D2356005E0EF
:1014D0000121C905884201DB6A4901E0654930689C
:1014E00004F08EFD394604F01BFD706066490498D7
:1014F00004F086FD0746B168706804F011FE3946B5
:10150000A06004F0D5FD07D30120C007474038464E
:10151000A16804F0CDFD00D2A760B068A16804F016
:10152000FFFCB060F768394604F0FAFD574904F053
:1015300067FD394604F0F4FCF0602178002962D0A0
:1015400001466061049804F05BFDE16904F0E8FC89
:10155000484F0646E0613946206A04F0E1FC314616
:1015600004F024FD206A394602D204F0D9FC0BE0D5
:1015700004F0D6FDE16904F09BFD01D3E06904E0CD
:101580003946206A04F0CCFDE0610746FFF786FD8E
:101590006080206A01900646FFF780FDA0803146FA
:1015A000384604F0BDFD0746606220693849029064
:1015B00004F026FDA16904F0B3FC0646FF2189056D
:1015C000384604F01DFD616904F0AAFC314604F0C0
:1015D000A7FD3049A06204F013FDE060039002997A
:1015E00004F09EFD2C49E06204F00AFD049904F029
:1015F00007FD216B04F094FC2849294F20638842A1
:1016000004DD084605E06561206ABDE7B84200D305
:101610000020064620632349039804F0F1FC31467C
:10162000606304F07DFC2049A063884201DD084628
:1016300002E0B84200D30020A063FFF755FD074940
:1016400008821A480078002803D00120207005B0D5
:10165000F0BD25630198E0612570F8E7D40800200B
:1016600034000020D206002024FAFFFF6F12833AD4
:101670006406002000001643D0070020CDCCCC3DEE
:10168000CDCCCCBD000048430000FA43CDCC4C3E4D
:10169000CDCC4C3D0000A0409A99193F0000164463
:1016A00000008080CDCCCC3E00007A44FC000020BD
:1016B000F0B5044600218DB0C9431046FFF75CFD2C
:1016C000FE4D0190AE6828683146049004F098FC05
:1016D0000690EF686D683946284604F091FC06993B
:1016E00004F01EFD0121FFF747FD05903946304605
:1016F00004F086FC07462946049804F081FC39462C
:1017000004F00EFC0121FFF737FD06903146084634
:1017100004F076FC06462946084604F071FC314682
:1017200004F0FEFB0121FFF727FD7F21C90504F02E
:10173000EBFC0790E24F0420385EFFF711FD0146F5
:1017400004F05EFC06460220385EFFF709FD014604
:1017500004F056FC05460020385EFFF701FD014607
:1017600004F04EFC294604F0DBFB314604F0D8FBC4
:1017700003F024F905460020205EFFF7F1FC29461E
:1017800004F03EFC02900220205EFFF7E9FC2946AF
:1017900004F036FC03900420205EFFF7E1FC2946AC
:1017A00004F02EFC04900699049804F029FC079993
:1017B0000546039804F024FC294604F0B1FC089087
:1017C0000799029804F01CFC05990546049804F05A
:1017D00017FC294604F0A4FC09900599039804F02D
:1017E0000FFC06990546029804F00AFC294604F00D
:1017F00097FC0A900899B14D1C3D28680290009012
:1018000004F0FEFB06460620205EFFF7A9FCAD4F64
:10181000394604F0F5FB314604F082FB0590099946
:10182000009804F0EDFB06460820205EFFF798FCC8
:10183000394604F0E5FB314604F072FB06900A9944
:10184000029804F0DDFB05460A20205EFFF788FCC5
:10185000394604F0D5FB294604F062FB079007994E
:10186000964DE868039004F0CBFB06990090A868B9
:10187000029004F0C5FB0746686801210646C907C7
:101880004840059904F0BCFB394604F049FC009936
:1018900004F046FC019904F0B3FB0799074602984F
:1018A00004F0AEFB06990890039804F0A9FB0A9097
:1018B00005992868009004F0A3FB0A9904F030FC15
:1018C000089904F02DFB019904F09AFB0799089000
:1018D000304604F095FB0B900699009804F090FBBD
:1018E0000A900599039804F08BFB0A9904F018FB01
:1018F0000B9904F015FC019904F082FB07990A90FA
:10190000009804F07DFB05990790029804F078FB9D
:1019100006990590304604F073FB059904F000FC2D
:10192000079904F0FDFA019904F06AFB0190394629
:10193000009804F0F5FA286007463046089904F04C
:10194000EFFA686000900A99029804F0E9FAA8603A
:1019500006460199039804F0E3FA0146E86004F0B2
:101960004FFB31460290084604F04AFB0099019073
:10197000084604F045FB06463946084604F040FB9D
:10198000314604F0CDFA019904F0CAFA029904F044
:10199000C7FA03F013F800902868009904F030FBB0
:1019A000286006906868009904F02AFB6860074682
:1019B000A868009904F024FBA8600646E86800992E
:1019C00004F01EFBE860054601213846FFF7D4FB12
:1019D000294604F015FB029001210698FFF7CCFB85
:1019E0003146059004F00CFB029904F099FB334951
:1019F0001C39886002903946059804F001FB039079
:101A000001213046FFF7B8FB294604F0F9FA0399A3
:101A100004F086FA29491C39C86029460390084613
:101A200004F0EEFA31460090084604F0E9FA054663
:101A30003946084604F0E4FA06990646084604F0DA
:101A4000DFFA314604F06CFB294604F069FB00998B
:101A500004F066FA194905461C3908610420205E25
:101A6000FFF77EFB294604F0CBFA06460220205EF3
:101A7000FFF776FB039904F0C3FA05460020205EC9
:101A80004042FFF76DFB029904F0BAFA294604F0D0
:101A900047FA314604F044FA08491C3948604521A8
:101AA000090604F03DFB084904F0AAFA034C083C7F
:101AB00020606568294604F033FB07E02001002020
:101AC000B80800202E9E8B3A7D3FF53E054904F074
:101AD00097FA294604F024FA0349606048600DB083
:101AE000F0BD0000CDCCCC3DD408002009480378DF
:101AF000002B03D081800021017002E08188491E03
:101B000081808188002903D101210170024802747B
:101B100070470000280000203806002010B501F0B2
:101B200047F802F089FF02F0A3FB02F045FB02F048
:101B3000DBFB02F005FC02F069FC02F0C3FC02F0E2
:101B40001DFD02F071FB02F04DFD02F025FC0021AD
:101B50000A4801F07DFE0421084801F079FE0021C9
:101B6000074801F075FE0421054801F071FE0023CD
:101B70001A461946184603F0E7FC10BD3003002052
:101B80007C03002070B50C460546164611462046DB
:101B900003F022FCE06868613146284603F01CFC33
:101BA00070BD000010B5034800F088FC024800F04A
:101BB00085FC10BD2C0200208802002010B50248D0
:101BC00000F07CFC10BD00004405002010B5034867
:101BD00000F074FC024800F071FC10BDA00500206C
:101BE000E804002010B50446006C09498008800014
:101BF00040186064207814210838FEF762FB04491D
:101C00008031A164C106C90E01208840E06410BD86
:101C1000000802400179084B8906890E8A00D21813
:101C20000265054A4432491E42658A07920F012126
:101C30009140816570470000FC08024072B6FEE7E3
:101C4000F1B5524C84B02078002809D00027504DBF
:101C500002280BD0032814D004287DD004200EE0E5
:101C60004C480078002878D002208BE002F0C6FEB5
:101C700002F01AFA4848876067600320EF66207018
:101C80007BE046490620085EFFF76AFA444904F003
:101C9000B7F9444E3168009104F042FA0021C9437B
:101CA000FFF76AFA009904F03BF930603B49019074
:101CB0000820085EFFF754FA394904F0A1F9716869
:101CC000009104F02DFA0021C943FFF755FA00995D
:101CD00004F026F97060314902900A20085EFFF78F
:101CE0003FFA2F4904F08CF9B168009104F018FA1A
:101CF0000021C943FFF740FA009904F011F9B060E0
:101D0000294A0199D1650299916111468031086291
:101D1000214842684A660168EF66A9628168606886
:101D200004F0FEF9214A2249A866904202DB04F041
:101D3000F7F904E01F4A904202D304F0F1F8A866D4
:101D40001349049A10310846CC38FFF71BFF10499D
:101D500015483439049A01E00AE012E0FFF712FF57
:101D60000B49049A54310846CC38FFF70BFF04E0C6
:101D700002F044FE02F098F9277006480078002827
:101D800001D10420207005B0F0BD00001800002033
:101D9000E8090020FC00002060080020B8080020AE
:101DA000F6FF793D2C060020E808002000003443AF
:101DB0000000B443000034C3F8B5244D0446EE6877
:101DC0003146304604F01CF90746A86800900146E9
:101DD00004F016F9394604F0A3F80121FFF7CCF915
:101DE0007F21C90504F090F9074601212868FFF713
:101DF000C3F9314604F004F9064601216868FFF78B
:101E0000BBF9009904F0FCF8314604F089F8394632
:101E100003F076FE0E4E314604F0F2F81C3DA06051
:101E2000A868FFF761F803F031FD7207094BFEF770
:101E300007FFFEF7F7FA60602969E86803F060FEC3
:101E4000314604F0DDF82060F8BD000020010020DC
:101E5000E12E6542DCA54C40F0B58DB0062304AA06
:101E60003B21D02002F09AF905AA06234321D02075
:101E7000023202F093F919480024006802906500CC
:101E800004A8405B41BA164828188089081A00B295
:101E900007A94853FFF764F9124EA700F1590091C2
:101EA00004F03EF9104904F0ABF8009904F038F85A
:101EB000F051BF19BE69314604F032F90A4904F005
:101EC0009FF8314604F02CF8B861FFF7E7F8029963
:101ED000641C4853062CD2DB0DB0F0BD100000206E
:101EE000B8080020FC0500209A99993EF8B5002713
:101EF0000646044640360097307D0D4601280FD037
:101F000001203075206802F033F900280AD0A06D56
:101F100020210843A0650127002030753846F8BD10
:101F20000220F8BD686802287ED001222169D2070C
:101F3000914202D0121D914206D120682968826A1E
:101F40004903490B0A436EE0C206D20E0F20216EF0
:101F5000904081432868430302D0C3074BD102E07D
:101F60004000C00E48E0830701D5012044E043074C
:101F700001D5022040E0030701D503203CE0C30661
:101F800001D5042038E0830601D5052034E043065E
:101F900001D5062030E0030601D507202CE0C3055B
:101FA00001D5082028E0830501D5092024E0430558
:101FB00001D50A2020E0030501D50B201CE0C30455
:101FC00001D50C2018E0830401D50D2014E0430452
:101FD00001D50E2010E0030401D50F200CE0C3034F
:101FE00001D5102008E0830301D5112004E040034F
:101FF00001D5122000E0002090400143216669686D
:10200000E2698808401C904210D820682B68826AD8
:102010009C46C906C90E0F238B409A4363469B001A
:102020001B0F8B401A4300E03BE082622168AB68E3
:1020300028684A690002824318404001400902436F
:102040004A612868002800DB66E72B4A11680723ED
:102050009B051940294B984214D10B0212D4C0029F
:102060000143104602F088F8264825490068FEF72B
:1020700028F90C21401C484300E0401E0090002835
:10208000FBD149E7204B984203D1CB0101D4800218
:1020900005E01E4B9842D7D14802D5D458020143DF
:1020A00025E001212069C907884202D0091D884224
:1020B00006D120682968826A4903490B8A438262F3
:1020C00028680028C0DA0C4A116807239B051940CC
:1020D0000A4B984201D1C00208E00B4B984201D153
:1020E000800203E0094B9842AED140028143104682
:1020F00002F042F810E7000008270140001000B08D
:10210000400D03000C000020004000B8002000B487
:10211000F0B50446002087B0039006460290009078
:10212000002C05D02746A06D2037002803D009E0F9
:10213000012007B0F0BD204600F018F90020E0654E
:102140005421085520688168C900C90F12D18168DF
:102150007D4A114001221207114381607C487B496E
:102160000068FEF7AEF84000801C00E0401E0090C2
:102170000028FBD120688168C900C90F08D1A16D72
:1021800010221143A165E16D01221143E165039223
:1021900001F0EEFFA16DC90601D4002804D0A06DA6
:1021A00010210843A065CCE0A06DFF2101318843D8
:1021B00002210843A065206801F0D6FF002833D132
:1021C0002068C16818229143A2681143C160606809
:1021D000E16C800F8007024632430E46397F16437A
:1021E000012908D1626C216C401C1143A26C02438E
:1021F00008461043064320680169564A114031439E
:10220000016103216068890788420DD05107884227
:102210000AD04900884207D04F4A91680F239B0497
:102220009943184001439160207E8503607EC0037E
:102230000543A07E41030D43216B002901D00121FC
:1022400009030D43E1680D432169002902DA4900C1
:10225000490801E0012149050D43397B49000D433F
:1022600002990D433978012909D1002856D0A06D73
:1022700020210843A065E06D01210843E065606A04
:10228000002806D0FF22C1321040A16A28430D4623
:1022900005432068C168314A11402943C160216863
:1022A00008692F4A1040304308610021626B2068A2
:1022B00001F069FF2B49A26B206801F064FF0F2138
:1022C0002069C94300282DD001225205904216D121
:1022D000226E002086001346F340DB431B0702D02A
:1022E000401C0828F6D301281CD02068836A237F6D
:1022F0009B001B1FDB06DB0E9940114381622068A7
:10230000C06819490840A84211D10020E065A06DBD
:1023100080088000401CA06503980AE701200004A3
:102320000543ACE72068826A0A438262E7E7A06D52
:102330000221884310210843A065E06D0121084374
:10234000E06501200390F4E6E8FFFF7F400D030005
:102350000C00002002FCFF1F002701401902FEFFB5
:1023600002FCFFDF04FFFF07E7FF3F8310B586B0E5
:10237000044614216846FDF7A2FF114920688842EF
:102380001BD110480268012109050A430260006858
:10239000084005900B484038426B02210A434263D3
:1023A000406B08400590042000900320019000201D
:1023B00002906946044800F02FF906B010BD0000F5
:1023C000002401404010024000040050F0B50028F5
:1023D00008D0014620314A79022A05D00422C2637E
:1023E000002008710120F0BD026813680E24A34389
:1023F0001360426C1468FF2301339C43146002682D
:1024000014686408640014600C4A5568066C1C2447
:10241000264001242746B7403D435560826CC56C79
:102420005560026D002A05D015689D431560826DC8
:10243000406D42604C7100200871F0BD0000024008
:10244000F8B50024024620325179022903D0042134
:10245000C16301242DE001680B680E25AB430B60BE
:1024600001680B685B085B000B60416C0B68FF2523
:102470000135AB430B6010494D68066C1C231E40B0
:1024800001231F46B7403D434D60816CC56C4D60D4
:10249000016D002906D00E681D02AE430E60416D2D
:1024A000856D4D60537100211171816B002900D041
:1024B00088472046F8BD000000000240F0B42C49D7
:1024C0000C6802681368056C1C273D400426AE406A
:1024D000264211D05E070FD513689B0603D41468FB
:1024E00004239C4314604B68046C04223C40A240CB
:1024F00013434B60016B1CE00227AF4006462740A8
:102500002036002F19D09F0717D513689B0605D4D6
:1025100013680A24A3431360012272714B68046C90
:102520001C2214400222A24013434B60002131714F
:10253000C16A00291AD0F0BC08470827AF402742DB
:1025400014D01B0712D513680E24A34313604B68E5
:10255000046C1C22144001221546A5402B434B60FD
:10256000C263727100213171416BE2E7F0BC7047C8
:102570000000024070B504003FD0254825681421B2
:102580002818FDF79EFE8000206402202646203693
:10259000707128681F4908402860E168A068626976
:1025A0000843216911430843A1690843E1690843CD
:1025B000216A084321680A68104308602046FFF733
:1025C00011FB0121A06889030025884200D16560C4
:1025D0002079616C8006800E0860A06CE16C41601F
:1025E0006068401E03280AD82046FFF713FB206DC1
:1025F0000560606DA16D416004E0012070BD25653E
:102600006565A565E563012070713571002070BDB9
:10261000F8FFFDBF0F80FFFFF0B50023032498E013
:1026200001259D402A407DD00E79B607B60F012EB8
:1026300001D0022E16D186682746B4465E00B64603
:10264000B7406646BE43B446CF687646B740664656
:10265000374387604668AE430D79ED06ED0F9D4028
:10266000354345600D79ED43AD0708D0C5685F007F
:102670002646BE40B5438E68BE402E43C6600D79E7
:10268000AD07AD0F022D0ED1DD08AD002D18AC4603
:102690002D6A5E07F60E0F27B740BD430F69B7409E
:1026A0002F4365462F6205685F002646BE40B5434E
:1026B0000E79B607B60FBE402E4306604D68AD03D7
:1026C000AD0F45D09E08264DB6007519AC462D6E4F
:1026D0009E07F60E0F27B740BD4305273F07B842B8
:1026E00001D100270FE01F4FB84201D101270AE0B6
:1026F0001D4FB84201D1022705E01C4FB84201D15D
:10270000032700E00527B7402F4365462F66144E88
:10271000803635684F689543FF0300D51543356013
:10272000756800E014E04F689543BF0300D515437A
:1027300075600B4E35684F689543FF0200D5154311
:10274000356075684F689543BF0200D515437560C5
:102750005B1C0A681546DD4000D061E7F0BD000053
:10276000001802400004005000080050000C005007
:10277000002A01D0816170478162704701488068FA
:10278000704700000000002070B5040005D0254609
:1027900080356868002802D006E0012070BD002066
:1027A0002870204601F0CCFA242068602068016877
:1027B000490849000160204602F058FC0128EDD08C
:1027C000A06A002802D0204602F07CFB2068416805
:1027D0000922D202914341602068816822229143FC
:1027E0008160206881680822114381602068016847
:1027F000012211430160204602F0CAFB70BD70B592
:10280000024640325378202B1CD11378012B19D06B
:102810000123137024245470046825689D432560A7
:10282000046825681E03B5432560046825680D43C8
:102830002560006801681943016020205070002065
:10284000107070BD022070BD70B5024640325378E2
:10285000202B1BD11378012B18D0012414702423B2
:10286000537003681D68A5431D6005682B680F261B
:102870003602B34309021943296000680168214305
:102880000160202050700020107070BD022070BDCB
:1028900070B5040006D0254640356878002600282B
:1028A00002D005E0012070BD2E70204600F0F4F843
:1028B00024206870206801684908490001600F21E0
:1028C0006068090688432168086121688A680120D8
:1028D000C00382438A60E1680129A16808D02122EF
:1028E0009202114322689160E168022902D005E05A
:1028F0000143F7E701212268C902516021684A6853
:102900000F4B1A434A602168CA688243CA606169F2
:1029100020690843A169090208432168C860216A47
:10292000E0690843216808602068016801221143BA
:1029300001606664202068702663AE70002070BD60
:1029400000800002FFB5054604464035687883B034
:10295000202875D10C98002814D00D98002811D08B
:10296000287801286CD001202870FFF707FF074660
:10297000012200901923D103204601F01FFB0028FB
:1029800074D103E00120400260646FE0222068708F
:102990004020A870002666640C9860620D986085DF
:1029A00066630E980090019704A90EC9204601F0B5
:1029B000C1FA002801D02E7058E0618D3448FF29FB
:1029C00005D9FF22228501231B06009006E0618DB8
:1029D00021850090208D0123C2B25B062046049918
:1029E00001F0D8FA00970022042120460E9B01F046
:1029F000E5FA00283AD12068406A616A0870606A86
:102A0000401C6062208D401E81B22185608D401E79
:102A10006085608D00281FD000291DD100970022FD
:102A2000802120460E9B01F0C9FA00281ED1608D3E
:102A3000FF2806D9FF22228501231B06009607E006
:102A400024E0608D20850096208D0123C2B25B06B4
:102A50002046049901F09EFA608D0028C2D13A46C2
:102A600020460E9901F0D1FA002802D0012007B0CB
:102A7000F0BD20682021C16120684268054B1A40E2
:102A800042606970AE702E700020F0E70220EEE721
:102A90000024008000E800FEF0B587B0064614214F
:102AA0006846FDF70CFC384B3268384D1221062081
:102AB00000249A4248D16B6B022213436B636B6B09
:102AC00001911340C2010593049002940394009273
:102AD00069462F48FFF7A0FDE96B0120400501433F
:102AE000E963E96B2C4D01402A4805912860AC60F0
:102AF000EC606C61AC618027EC612F610A202C6274
:102B000068602846FFF736FD002801D0FFF796F8E9
:102B1000F563AE62204D1F485C35143028600B20F1
:102B2000686029461020083191C16C61AC61EC618C
:102B300028462C62FFF71EFD002801D0FFF77EF823
:102B4000B563AE6207B0F0BD144B9A42FAD16A6B1E
:102B500001231A436A636A6B04901A4005920322A8
:102B6000D202019105200294039400926946000765
:102B7000FFF752FDE96B012080050143E963E96B32
:102B800001400591DEE700000054004000100240C3
:102B900000040050440002402C0200200058004075
:102BA000024881680278891881607047000000201F
:102BB00010B5084800240168821511430160032004
:102BC00000F00AF8002801D0012401E000F028F804
:102BD000204610BD0020024070B50F4E0024317811
:102BE0000546002915D07D20C000FDF76AFB01468F
:102BF0000A480068FDF765FB00F034FC002808D1A6
:102C0000042D06D200222946401E00F02BF87560E4
:102C100000E00124204670BD000000200C000020D0
:102C200008B509480168012211430160006810409D
:102C3000009005484038C26B01040A43C263C06B70
:102C40000840009008BD000040100240002805DB4D
:102C5000C106C90E01208840014908607047000084
:102C600000E100E010B502F075FD10BD10B50F4C8D
:102C7000216803225202914301432160C11FFF39A1
:102C8000FA390ED10A480621006848430949FDF780
:102C900018FB401C02E0002805D0401E6169490570
:102CA000F9D4002010BD032010BD000000700040CA
:102CB0000C00002040420F00F8B5044600680026D2
:102CC000664D800358D5654800274038C06BC0006A
:102CD00009D462484038C26B01040A43C263C06B26
:102CE0000840012700905E48016882151143016089
:102CF000FFF744FD009005E0FFF740FD0099401A02
:102D0000022825D856480068C005F5D5E869032192
:102D1000090208400FD0616A81420CD0E8690321A2
:102D20000902EA698843012109040A43EA61EA6960
:102D30008A43EA61E861C0070FD0FFF71FFD0090EA
:102D400008E0FFF71BFD0099411A4648814201D96E
:102D5000032609E0E8698007F3D5E8690321090241
:102D60008843616A0843E861002F05D03B4840383A
:102D7000C26B01048A43C2632078C00705D068692A
:102D8000616880088000084368612078C00606D525
:102D90006869032189028843A16808436861208823
:102DA000800506D568690321890488436169084361
:102DB00068612088400506D56869032109058843B4
:102DC000A169084368612078800606D568690321F7
:102DD00009038843E168084368612088400411D5ED
:102DE0006869E16980008008084368610121E06941
:102DF0008907884206D119484038C1680122120467
:102E00001143C1602068800210D5686901218905DD
:102E1000226A884310436861206A884206D10F48BD
:102E20004038C168012212061143C16020880005A4
:102E300012D56869032189038843216908436861C1
:102E4000012120698903884206D104484038C168BD
:102E5000012212041143C1603046F8BD4010024007
:102E60000070004088130000F8B50F46060043D0FC
:102E70004D4D28684007400FB84213D22868C0085B
:102E8000C00038432860FFF779FC044605E0FFF7EF
:102E900075FC011B4548814261D828684007400FF6
:102EA000B842F4D13068424C81070DD5400704D5B3
:102EB000A068072109030843A060A0680F21090248
:102EC0008843B1680843A0603078C00732D070688A
:102ED00001280AD002280BD000280FD034494031F5
:102EE00003280ED0C969890704E02168890301E03D
:102EF00021688901002906DB0120F8BD2168490508
:102F0000F8E7096AEFE7A168C908C9000143A160B1
:102F1000FFF734FC009006E0FFF730FC0099411AFF
:102F2000224881421BD8A068382108407168C90036
:102F30008842F1D128684007400FB84217D91A4893
:102F40000168C908C90039430160FFF717FC05464D
:102F500007E0FFF713FC411B1448814201D903200D
:102F6000F8BD114800684007400FB842F1D13078F1
:102F7000400706D5A068072109038843F168084384
:102F8000A06000F031F8A1683C2289091140094A8B
:102F9000515CC906C90EC840074908600748006867
:102FA000FFF71AFEF8BD0000002002408813000061
:102FB00000100240186200080C00002004000020ED
:102FC0000648074900688968064A4904490F89008C
:102FD000515CC906C90EC840704700000C000020B3
:102FE000001002405862000810B5204CA068204A2A
:102FF0008006400F16D0A0688006410F50100129AE
:103000000FD0A1688906490F022912D0A068800656
:10301000400F042823D0A0688006400F032821D049
:10302000002010BD206801218004400F814010461F
:1030300012E0E1688B07E1689B0F4906490F491CC4
:10304000032B00D01046FDF73CF9E1684904490E16
:103050004843E168490F491CFDF733F910BD0120D1
:10306000C00310BD7D20000210BD00000010024012
:103070000024F400F8B504007ED020783827C0077B
:10308000EF4D002846D0A868E96838408907890FC5
:10309000102802D008280BD001E0032908D0012015
:1030A0006268000482420AD129680143296015E060
:1030B000286880032ED560680028DDD02AE005232B
:1030C00001211B0489049A422A6802D10A432A601A
:1030D000EAE782432A6028688843286060680028FD
:1030E0000CD0FFF74BFB064604E0FFF747FB801BC5
:1030F000642873D828688003F7D50BE0FFF73EFB00
:10310000064604E0FFF73AFB801B6428F1D82868E4
:103110008003F7D42078800769D5A868E96838402B
:103120008A070721920FC902102802D0002813D065
:1031300001E0022A10D0E068002846D028688843C1
:103140002169084328602868FF210131084328606D
:10315000FFF714FB06462CE02A68520502D5E26808
:10316000002A89D06A687F231B029A4363691B0285
:103170001A436A60002800E08DE00ED12868884379
:10318000216908432860286801218004400F81409C
:10319000AC48FDF796F8AC490860AC480068FFF70A
:1031A0001BFD002877D122E0FFF7E8FA801B0228F8
:1031B0009FD828684005F7D568687F2109028843B1
:1031C000616909020843686011E02968FF20013045
:1031D00081432960FFF7D2FA064605E098E0FFF741
:1031E000CDFA801B022884D828684005F7D42078BF
:1031F000974E00072ED5A8688006400F03280AD0F6
:10320000A0690028306A16D0012108433062FFF718
:10321000B5FA07460BE0306A80071BD5A069002885
:103220009FD017E0FFF7AAFAC01B022870D8306AB7
:103230008007F7D50EE0400840003062FFF79EFAA5
:10324000074604E0FFF79AFAC01B022860D8306AEC
:103250008007F7D4207840076CD5A868002780063F
:10326000400F042818D0E86BC00008D4E96B012097
:1032700000070143E963E96B0140012700917548AC
:103280000168C90519D40168821511430160FFF76F
:1032900075FA00900DE083E0F06980074AD5A068D8
:1032A00000287DD046E0FFF769FA0099401A02280D
:1032B0002ED868480068C005F5D5A168012910D04E
:1032C00004200529F16911D049084900F161F1692B
:1032D0008143F161A068002816D0FFF74FFA0090F3
:1032E0000EE0F06901210843F061F3E70143F16169
:1032F000F7E7FFF743FA0099411A574881426FD820
:10330000F0698007F5D50EE0FFF738FA009007E086
:1033100066E0FFF733FA0099411A4F4881425FD8BF
:10332000F0698007F5D4002F04D0E86B012109076C
:103330008843E863E06900287FD0A9688906490FBF
:10334000022953D001263606022828680DD0B04342
:103350002860E86880088000E860E8683F49084025
:10336000E860FFF70BFA04463CE0B0432860FFF743
:1033700005FA074604E0FFF701FAC01B02282FD820
:1033800028688001F7D4616A206AA26A0843E16A6A
:10339000120211430843216B0843616B084300E0AC
:1033A00049E0E9682E4A11400843E8602868304344
:1033B0002860E868012109070843E860FFF7DEF9A3
:1033C000044604E0FFF7DAF9001B022808D8286851
:1033D0008001F7D531E0FFF7D1F9001B022801D9B0
:1033E0000320F8BD28688001F5D426E00128F8D034
:1033F000E868226A8107890F91421CD17021626AB4
:103400000140914217D17F21A26A090201401202B4
:10341000914210D11F214904E26A014091420AD130
:1034200007214906226B0140914204D1400F616B94
:103430004007884201D00120F8BD0020F8BD0000FF
:10344000001002400024F4000C00002004000020C2
:10345000401002400070004088130000FFFFFEEEA5
:103460008C80C111094910B5401E884201D9012044
:1034700010BD074C60610321081F02F06BF90020AA
:10348000A06107202061002010BD0000FFFFFF00A9
:1034900000E000E0F0B5034620331A7F012A28D06F
:1034A00001221A7702225A7704686268A568124FCF
:1034B000BC4205D116460F22120596434A68324394
:1034C0007026B2430E68164366600068B84206D0A4
:1034D00001229207904202D0084A904204D18022F1
:1034E0008968954329438160012058770020187727
:1034F000F0BD0220F0BD0000002C0140000400409F
:1035000070B5040005D025462035687F002802D01C
:1035100006E0012070BD00202877204600F016F854
:1035200002206877211D206801F0D2FA0122403480
:103530002272AA77EA7722706270A270E27022711A
:103540006271A271E2716A77002070BD08B50168EE
:103550001048814206D110480268C1140A43026033
:10356000006815E00C48012292074038914207D1CB
:10357000C16B01221143C163C06B1040009008BDB4
:10358000064A9142FBD1C26B02210A43C263C06B5F
:103590000840F3E7002C01404010024000040040C6
:1035A00070B5054604462035287F012817D001262E
:1035B0002E7702206877226890682E4B1840FF23F0
:1035C0001B02984390600A68502A32D00EDC202AF1
:1035D0004CD006DC002A49D0102A3BD146E002201C
:1035E00070BD302A42D0402A34D137E0602A28D03A
:1035F000702A12D001200003121A2BD0824229D146
:10360000CB684A688968206801F0B1FA206881684F
:1036100001229203114381601CE0CB684A688968EB
:10362000206801F0A4FA2168886877221043886036
:1036300010E0CA684968206801F0FEFB502120684C
:1036400006E0CA684968206801F007FC602120682C
:1036500001F098FA6E770020287770BDCA68496833
:10366000206801F0E9FB40212068F1E7114620685D
:10367000EEE7000088FFCEFF70B586B00446142147
:103680006846FCF71CFE012625680520B6070024C5
:103690001249012302220007B5420BD14D6B1D4395
:1036A0004D63496B6D4619400591032116C503947E
:1036B00004920EE00A4EB5420ED14D6B1D434D6390
:1036C000496B6D46C907C90F0591C02116C5039402
:1036D00004936946FEF7A0FF06B070BD00100240DB
:1036E00000040040F8B5064604462036307F0D46FB
:1036F00001280CD00120082730770C2A44D008DCA0
:10370000002A0BD0042A19D0082A77D12CE00220F5
:10371000F8BD102A4ED0142A70D15BE0206801F069
:103720003BFA2068816939438161206881690422FC
:1037300091438161206881692A6912E0206801F063
:1037400069FA206881690122D202114381612068EF
:103750008269012189028A438261206881692A691C
:1037600012021143816149E0206801F091FA20685A
:10377000C1693943C1612068C16904229143C161B3
:103780002068C1692A6912E0206801F0BFFA206848
:10379000C1690122D2021143C1612068C2690121BD
:1037A00089028A43C2612068C1692A6912021143F1
:1037B000C16123E0206801F0DFFA2068416D3943E0
:1037C00041652068426D04218A4342652068416D4D
:1037D0002A6911E0206801F0FDFA2068416D01229C
:1037E000D202114341652068416D521091434165F9
:1037F0002068416D2A69120211434165002030772B
:10380000F8BD70B5040005D025462035687F002836
:1038100002D006E0012070BD00202877204600F08D
:1038200016F802206877211D206801F051F9012265
:1038300040342272AA77EA7722706270A270E27036
:1038400022716271A271E2716A77002070BD7047C7
:1038500010B504460223203000290ED0042911D0CF
:1038600020464030082912D00C2915D0102918D034
:10387000C278012A1AD0012010BD827F012AFAD114
:10388000837714E0C27F012AF5D1C3770FE0027875
:10389000012AF0D103700AE04278012AEBD143708B
:1038A00005E08278012AE6D1837000E0C37001222E
:1038B000206801F04FF913492068884205D0124A68
:1038C000904202D0114A904204D1426C0123DB03A2
:1038D0001A43426420680122884205D09107884239
:1038E00002D00B49884207D181680A4B194006294A
:1038F00005D0DB1F994202D001681143016000200E
:1039000010BD0000002C014000440140004801406F
:10391000000400400700010010B5014680310A781C
:10392000012A15D001220A7024224A600268136815
:103930001468640864001460012252079343002253
:10394000426600680360202048600A70104610BD7F
:10395000022010BD7047704770B50446054680349C
:10396000207801281AD00120207024206060286867
:1039700006680268520852000260286882680723BD
:103980005B069A430A438260284601F079FA286868
:103990000660202060600020207070BD022070BD95
:1039A00070B50446054680342078012819D00120DE
:1039B000207024206060286806680268520852005F
:1039C000026028688268D200D2080A4382602846D2
:1039D00001F056FA28680660202060600020207000
:1039E00070BD022070BD704770477047F8B503681E
:1039F0000446D96918689A68B24D0E462E4025468D
:103A00008035002E75D0B04EB04F1640074037437A
:103A10006ED0CF0706D0C70504D501271F62EB681B
:103A20003B43EB608B0708D5D30706D027680223FA
:103A30003B62EB6804273B43EB604B0708D5D30799
:103A400006D0276804233B62EB6802273B43EB6008
:103A50000B0709D520230340334305D026680823EC
:103A60003362EE681E43EE600B0509D5430107D5AE
:103A700001232668DB023362EB6820263343EB60C8
:103A8000EB68002B42D089060AD520210840C905E1
:103A90000A40104304D0216F002901D020468847F6
:103AA000E86821688968490602D42821084232D092
:103AB000204601F0A9FA21688868400627D5EFF36F
:103AC0001080012282F310888B68402293438B6020
:103AD00080F31088E06F002819D07D498163E06F82
:103AE000FEF7AEFC002811D0E06F816B0DE000E026
:103AF00017E08E0615D5012720263F070640174000
:103B00003E430ED0216FB1E020468847F8BD2046E5
:103B1000FFF76BFFF8BD2046FFF767FF0020E86066
:103B2000F8BDE66E012E7CD1CE067AD5C60678D5D4
:103B300010221A62236898682646400640360028FC
:103B400047DAE16F086840680004000CE8D0B78BE2
:103B50008742E5D9F08308680068800634D4EFF323
:103B60001080012181F3108819681701B943196089
:103B700080F31088EFF31080012181F31088216811
:103B80008B685B085B008B6080F31088EFF310801C
:103B9000012181F3108821688B684027BB438B602B
:103BA00080F310882020A8600020E066EFF31080EA
:103BB000012181F3108821680B6893430B6080F327
:103BC0001088E06FFEF702FCB08BF18B401A81B2D7
:103BD00033E0B08BF18B401A81B2F08B00289FD07C
:103BE00000299DD0EFF31080012686F310881E680F
:103BF000FF272137BE431E6080F31088EFF310804B
:103C0000012383F3108823689E682F4FFF433E40B3
:103C10009E6080F310882020A8600020E066206766
:103C200000E00EE0EFF31080012383F31088236897
:103C30001D6895431D6080F310882046FFF78AFEBB
:103C4000F8BDCE0208D5560206D50120000518623F
:103C50002046FFF7C9FEF8BD0E060BD501278026CA
:103C6000FF0506403A40164304D0616F002900D09A
:103C70004AE7F8BD4A0614D5420612D52046EFF3AE
:103C80001081012282F310881C68402294431C603A
:103C900081F31088202169600021416700F0F2F86B
:103CA000F8BD0A0205D5420003D52046FFF79BFE6A
:103CB000F8BDC901FCD50028FADA2046FFF74BFE13
:103CC000F8BD00000F0800000100001020010004F2
:103CD000F54F000870B5040005D0254680356868AA
:103CE000002802D006E0012070BD00202870204688
:103CF00000F026F82420686020680168490849001F
:103D00000160204601F0B2F90128EDD0A06A002838
:103D100002D0204601F0D6F8206841680922D2027C
:103D200091434160206881682A2291438160206824
:103D30000168012211430160204601F029F970BD9C
:103D4000F0B587B0064614216846FCF7B8FA474D2F
:103D500033684748022201210024AB4231D1444B51
:103D600040331F688D032F431F601B682B40059352
:103D7000436B13434363406B01AB104005904020FD
:103D80000090122013C369463A480494FEF744FC9D
:103D90003A4D39482860332068601020EC60A860F4
:103DA0006C61AC61EC6180202C6228612846FEF7D2
:103DB000E1FB002801D0FDF741FFB567AE6207B017
:103DC000F0BD2F4DAB42FAD1C56B01235B041D43FF
:103DD000C563C56B1D400595436B0B434363406B47
:103DE0006B46C007C00F05900C2015C30491052039
:103DF000039469460007FEF70FFC1F481F4D283843
:103E00005C352860AC60EC606C61AC618027EC6173
:103E10002F6134202C6268602846FEF7ABFB002837
:103E200001D0FDF70BFFF567AE62144D1248B835AF
:103E3000143828603520686029461020083191C167
:103E40006C61AC61EC6128462C62FEF793FB0028A4
:103E500001D0FDF7F3FEB567002211461C20AE62CB
:103E6000FEF700FF1C20FEF7F1FEA8E70038014036
:103E7000001002400004005030000240E80400201E
:103E8000004400407047FEE701688A69D243920708
:103E900001D400228A6200688169C943C90703D03E
:103EA000816901221143816170470000F7B5044622
:103EB00000680F468169C943C90636D44168890143
:103EC00004D4416801229203114341600026254633
:103ED000403520688069C043800612D5781CF8D030
:103EE000FEF74CFC0299401AB84201D8002FF0D1DD
:103EF000616C2020014361646870AE702E700120F7
:103F0000FEBD21681020C86120682027C7612046B7
:103F1000FFF7BAFF20684168054A11404160606CB4
:103F20000421084360646F70E7E70020FEBD0000D5
:103F300000E800FEF8B50446164615481D46DAB2FC
:103F40000090079F0023204600F024F83A462046C0
:103F5000069900F080F8002818D12846F5B201280B
:103F600009D02168300A88623A462046069900F056
:103F700072F800280AD1206885620097002240214B
:103F80002046069B00F01AF8002800D00120F8BD5A
:103F900000200080F0B50668059C7568064F600D2E
:103FA000384385438805800D110408431843204396
:103FB00005437560F0BD0000FF63FF03F8B51D46C3
:103FC00017460E46044609E0681C07D0FEF7D6FBEC
:103FD0000699401AA8420BD8002D09D020688169A3
:103FE000304688430FD00020B842EDD00020F8BD05
:103FF000616C202001436164403460700020A07037
:1040000020700120F8BD0120EEE770B516460D4680
:1040100004460FE0324629462046FFF747FF0028B6
:1040200001D0012070BDFEF7A9FB801BA84208D873
:10403000002D06D020688069C0438006EAD40020A5
:1040400070BD616C202001436164403460700020C9
:10405000A0702070E5E770B516460D46044611E0E5
:10406000324629462046FFF721FF002801D00120D3
:1040700070BD681C06D0FEF781FB801BA84208D8E3
:10408000002D06D020688069C0438007E8D4002056
:1040900070BD616C20200143616440346070002079
:1040A000A0702070E3E700007F210448C90501608B
:1040B000002141608160C160704700002001002044
:1040C00070B5234C03212068401C2060FCF7F9F8F0
:1040D000204D002909D1FDF7BFFE2A461E491F4881
:1040E000FDF7E6FA284601F03FFA03212068FCF7C5
:1040F000E8F8002904D12846FDF7A2FD00F090FA67
:104100002078400702D11448FDF756FE0A212068A6
:10411000FCF7D7F8002906D1114D284601F052F9D5
:10412000284601F053FE14212068FCF7CAF8002944
:104130000CD10C4C204601F0ADFA204601F02EFACD
:104140002046FDF79BF9204600F030FB70BD0000D3
:1041500070000020A69B443B60080020B8080020A7
:104160000AD7233C0AD7A33C8068C007C00F70471A
:1041700080684007C00F7047026807239B059A4379
:104180000A430260704710B54369042421400724A4
:104190008C40A3438A401343436110BD3EB5FF24C6
:1041A0006D461CC50A46014601230248FEF7CAFBBC
:1041B0003EBD0000940100203EB500241848009444
:1041C00001941649029401608460C4600905046189
:1041D0004160042141610476447684760121C16105
:1041E000014620310C70446284620C7304634463A2
:1041F00084630C77C464FDF78BFF002801D0FDF7C2
:104200001DFD084800900194694602940448FDF79A
:104210006DFE002801D0FDF711FD3EBD00240140D8
:10422000300100200004002808B51048816B0122ED
:1042300011438163806B10400022009011460920D9
:10424000FEF710FD0920FEF701FD002211460A20AD
:10425000FEF708FD0A20FEF7F9FC002211460B20AC
:10426000FEF700FD0B20FEF7F1FC08BD0010024038
:1042700070B586B014216846FCF721F81848426BE7
:1042800002210A434263426B0A400592426B0421B9
:104290000A434263426B0A400592416B0125294360
:1042A0004163406B052628403607059000223021E7
:1042B0003046FEF75DFAE803002400900194694659
:1042C00002940848FEF7A8F930200090029469464D
:1042D000019503943046FEF79FF906B070BD0000CB
:1042E000001002400008005010B513481149016049
:1042F00012494160002181600161416181610122B7
:10430000C161C2600162FEF7C3FA002801D0FDF767
:1043100095FC00210848FEF772FA002801D0FDF74D
:104320008DFC00210448FEF78FFA002801D0FDF72C
:1043300085FC10BD0054004094010020BC7D70102D
:1043400010B5134811490160124941600021816094
:104350000161416181610122C161C2600162FEF7B8
:1043600097FA002801D0FDF769FC00210848FEF704
:1043700046FA002801D0FDF761FC00210448FEF751
:1043800063FA002801D0FDF759FC10BD0058004029
:10439000E0010020BC7D701010B588B000240594A9
:1043A00006941848039404940094019414490294C8
:1043B00001603F218460416004614461124984616D
:1043C000C160FFF79DF8002801D0FDF737FC012000
:1043D0000003039003A90B48FFF7E2F8002801D07F
:1043E000FDF72CFC00940194694606480294FFF7FF
:1043F00051F8002801D0FDF721FC08B010BD0000E5
:10440000002C0140E4020020E703000010B58EB04C
:1044100000240794089409940A940B940C941C218A
:1044200068460D94FBF74BFF012124488907016082
:10443000272184604160046121498461C160FFF7E4
:104440005FF8002801D0FDF7F9FB01200003079079
:1044500007A91A48FFF7A4F8002801D0FDF7EEFBE2
:104460001648FFF7CEF9002801D0FDF7E7FB0B94C3
:104470000BA912480D94FFF70DF8002801D0FDF7A5
:10448000DDFB6020009001940294002269460494B0
:104490000A48FFF727F9002801D0FDF7CFFB0422D7
:1044A00069460648FFF71EF9002801D0FDF7C6FB54
:1044B0000248FFF7E1F80EB010BD00003003002005
:1044C000E703000010B58EB0002407940894099407
:1044D0000A940B940C941C2168460D94FBF7EFFE94
:1044E00024482349016027218460416004612249F6
:1044F0008461C160FFF704F8002801D0FDF79EFB3E
:1045000001200003079007A91A48FFF749F800287F
:1045100001D0FDF793FB1748FFF773F9002801D08E
:10452000FDF78CFB0B940BA912480D94FEF7B2FF1C
:10453000002801D0FDF782FB6020009001940294D6
:104540000022694604940B48FFF7CCF8002801D0FC
:10455000FDF774FB042269460648FFF7C3F80028FC
:1045600001D0FDF76BFB0348FFF786F80EB010BDD6
:10457000000400407C030020E703000010B5184849
:1045800016490160E1214902416000218160C1605A
:1045900001618161C16101620C22416242618162FB
:1045A000FEF7F2F8002801D0FDF748FB00210C4887
:1045B000FFF7F6F9002801D0FDF740FB002108487D
:1045C000FFF7CAF9002801D0FDF738FB0448FFF7D0
:1045D000A3F9002801D0FDF731FB10BD00380140E0
:1045E000C803002010B50D480B490160E1214902C4
:1045F000416000218160C16001618161C16101622E
:104600000C22416242618162FFF764FB002801D005
:10461000FDF714FB10BD00000044004058040020CA
:10462000F0B55B485B49037887B0002B01D10422C9
:104630004A704C78574F00220837002C06D0012CC6
:104640000AD0032C16D0042C13D19EE0002B03D0EB
:10465000C270827001224A704278002A02D1C0786A
:10466000002801D003204870642038807880B8800A
:10467000F88082E0484B494C5E68A64207D8484D16
:10468000AE4204DC1B68A34201D8AB420EDD0270CF
:104690000420487000F0ACF900F0B0F9FFF704FD19
:1046A0003C4808210830FBF708FE66E03D48C16839
:1046B0000191006D029001F033FD3A498031496962
:1046C000009101F02DFC0146002001F029FCFCF7CF
:1046D000E5FC04B23C800199029801F021FC0099AC
:1046E00001F01EFD0146002001F01AFCFCF7D6FC8B
:1046F00006B27E800299019801F012FD009901F046
:104700000FFC0146002001F00BFCFCF7C7FC05B2D2
:10471000BD8001210298C9074840019901F000FDC0
:10472000009901F0FDFC0146002001F0F9FBFCF7C7
:10473000B5FC7D2100B2C900F880642C01DC642442
:1047400002E08C4200DD0C463C80642E01DC6426D5
:1047500002E08E4200DD0E467E80642D01DC642581
:1047600002E08D4200DD0D46BD80642801DC64213D
:1047700002E0884200DC0146F980BB793A79B978D9
:10478000387800F0E1FE07B0F0BD4A7088E700001D
:10479000FC0000201800002060080020000020C25B
:1047A00000002042E8080020FEE70000F1B5744E4A
:1047B000744F70888AB0381AFCF7D2FC724901F045
:1047C0001FFC7249096901F0ABFB714D044628607A
:1047D0003088381AFCF7C4FC6B4901F011FC6B49B6
:1047E000496901F09DFB0121C9050F0268608C42F7
:1047F00000DA7C40674A0026944200DA2E60884244
:1048000000DA7840904201DA61484660624900204F
:10481000085EFCF7A5FC0A9901F0F2FB5C4C0290E3
:104820000834216801F07CFB206005900546029861
:10483000616801F075FB60600446049054482946A5
:104840000068039001F06CFC514928310860089021
:104850004F4821464068029001F062FC4C492831E3
:1048600048600790084618380068294601F058FC4F
:10487000474D21461835286028460838406801F021
:104880004FFC6860284608300168039801F048FC36
:104890000A9901F0B5FB1835296801F041FB04467F
:1048A0002860284610384168029801F039FC0A99BE
:1048B00001F0A6FB696801F033FB0146374A6860E6
:1048C0003748944201D3134604E0844201DD034695
:1048D00000E023462B60914201D3144604E081425C
:1048E00001DD044600E00C462948303044602038A1
:1048F00005990160049941602A49184601F080FB3E
:1049000005462949089801F07BFB294601F008FB80
:1049100005461F48234938300560204601F070FBEA
:1049200004462149079801F06BFB214601F0F8FA93
:1049300017491E4A3831486001461D48954201D347
:10494000154602E0854200DD0546114B38331D60F7
:10495000914201D3104602E0814200DC08460C4936
:104960005860403178400D60486012480078002857
:1049700003D108461038066046600BB0F0BD000059
:10498000D2060020DC0500009A99993ED00700204D
:10499000740000200000A040B80800200000C8C239
:1049A0000000C8428FC2F53D9A99193E0000A0C18F
:1049B0000000A041340000207047000070B5FF25C2
:1049C00000210446AD05C943FCF7D6FB074A611038
:1049D000541A214601F014FB214601F011FB29462F
:1049E00001F092FB214601F00BFB70BDDF59375FF0
:1049F0000148016BC16270476C0800200020084B21
:104A0000014644224243D2181163D162D160401C56
:104A100091620828F5DB04480249016770470000ED
:104A2000E80800200000A042680A0020704710B586
:104A3000FEF7B6F810BD000030B59DB038216846CD
:104A4000FBF73DFC0024189419941A9428210EA811
:104A50001B94FBF734FC01204002FEF707F9022506
:104A6000E801039000954020059008200A908003FB
:104A70000B90079500020C900895000104940D908E
:104A800009946846FEF7F6FA002801D0FDF7D6F83B
:104A9000072018901A94022119951B9418A8FEF764
:104AA000E3F9002801D0FDF7C9F8074811940E90EA
:104AB0000F94159416940EA8FEF7FEF8002801D066
:104AC000FDF7BCF81DB030BD21402000704700004C
:104AD000F0B502681A4B0124A4071A4D984203D07E
:104AE000A04201D0A84203D17026B2434E6832439F
:104AF000154E164F98420AD0A04208D0A84206D0C0
:104B0000134CA04203D0B04201D0B84204D10324D8
:104B10002402A243CC6822438024A2434C6922434E
:104B200002608A68C2620A688262984203D0B04218
:104B300001D0B84201D10969016301214161F0BD91
:104B4000002C0140000400400044014000480140A6
:104B50000020004010B5CB06DB0E0121046A99400D
:104B60008C430462016A9A401143016210BD30B562
:104B70008468FF252D021B021343AC430B432343E0
:104B8000836030BD8268034B1A400A4307210A4301
:104B9000826070478FFFCFFFF0B5026A5208520063
:104BA0000262056A43688269164C184E22409208D8
:104BB0000C6892001443022295438A682A43124DDE
:104BC000A84204D0B04202D0114FB84206D1082703
:104BD000BA43CF681743042297433A46A84204D009
:104BE000B04202D00A4DA84206D103252D02AB43A4
:104BF0004D691D438B692B43436084614968416360
:104C00000262F0BD8FFFFEFF002C01400044014016
:104C10000048014070B5026A10239A430262046A98
:104C200043688269164D2A4003252D02AA430D6868
:104C30002D021543202294438A6812012243114C0D
:104C4000A04208D11446CA688026B4431201224308
:104C50004024A24305E00C4CA04202D00B4CA042E1
:104C600008D10324A402A3434C69A4001C438B690C
:104C70009B0023434360856149688163026270BD84
:104C8000FF8FFFFE002C014000440140004801401E
:104C900070B5026AFF2301339A430262046A4368D3
:104CA000C269164D2A4092080D68920015430122F0
:104CB000520294438A6812022243114CA04208D146
:104CC0001446CA68C614B443120222430415A24310
:104CD00005E00C4CA04202D00B4CA04208D10324AA
:104CE0002403A3434C6924011C438B691B01234308
:104CF0004360C5614968C163026270BD8FFFFEFFFA
:104D0000002C0140004401400048014030B5026AD7
:104D100001231B039A430262046A4568C269124B6D
:104D20001A4003231B029A430B681B021343012200
:104D3000520394438A68120322430C4CA04205D0CC
:104D40000B4CA04202D00B4CA04206D12C460125B0
:104D5000AD03AC434D69AD0125434560C36149686E
:104D60000164026230BD0000FF8FFFFE002C014095
:104D7000004401400048014070B5026A0126360433
:104D8000B2430262036A4268446D0E4D2C400D68C6
:104D900025437400A3430C8924041C430A4B984206
:104DA00005D00A4B984202D0094B984203D14B6977
:104DB000B2431B021A43426045654968816504623B
:104DC00070BD00008FFFFEFF002C01400044014039
:104DD0000048014070B5026A01231B059A43026234
:104DE000036A4268456D104C25400C6824022C4330
:104DF00001256D05AB430D892D051D430B4B9842D5
:104E000005D00B4B984202D00A4B984206D101269E
:104E10001346B6044A69B34392021A43426044659A
:104E20004968C165056270BDFF8FFFFE002C01401F
:104E3000004401400048014030B5036A046A640838
:104E4000640004628469F025AC43120122430A2401
:104E5000A3430B438261036230BD30B5036A102463
:104E6000A34303628469036A0F252D031203AC4335
:104E70002243A024A343090119438261016230BD8A
:104E8000F8B50446416E4034002915D000688168A9
:104E9000806809014D0F0A4E400F3746315C083FCC
:104EA000385CC000FBF70DFA6085785D715DC0006D
:104EB000FBF707FA2085F8BD01206085FAE70000BE
:104EC0001062000810B5018DC90707D001684A6853
:104ED00001235B049A43C36A1A434A60018D890720
:104EE00007D501684A6801231B049A43036B1A43E0
:104EF0004A60018D490707D501684A6801239B0470
:104F00009A43436B1A434A60018D090707D501682C
:104F10004A680123DB039A43836B1A434A60018D7D
:104F2000C90607D50268916801231B039943C36B27
:104F300019439160018D890607D501688A680123AC
:104F40005B039A43036C1A438A60018D490612D5AC
:104F500003685A6801210905446C8A4322435A6058
:104F6000426C8A4207D10268516803235B0599436A
:104F7000836C19435160018D090607D501684A68A1
:104F80000123DB04C06C9A4302434A6010BD000059
:104F9000FEB50546002680350446EE60FDF7EEFBC3
:104FA000019020680068124F000709D50121009781
:104FB000002249052046019B00F05EF900280DD132
:104FC0002068006840070BD5012100970022890561
:104FD0002046019B00F050F9002801D00320FEBDBF
:104FE00020206860A860E6662E700020FEBD0000EC
:104FF000FFFFFF0110B5806A002201464031CA83DD
:10500000CA82FEF7F2FC10BD10B5EFF31081012249
:1050100082F3108802681368FF242134A3431360CD
:1050200081F31088EFF31081012282F31088026867
:1050300093680D4C2340936081F31088C16E012961
:105040000BD1EFF31081012282F3108802681368FC
:105050001024A343136081F31088202288210A5072
:105060000021C166016710BDFEFFFFEFF8B50446E1
:10507000016880682369E5691843636900262B434A
:105080001843734A0B68734D2B4003430B60216830
:10509000486803231B039843E3681843486021686A
:1050A000A069914201D0236A18438B686A4D2B4056
:1050B00003438B602068C16A636A090909011943C7
:1050C000C1626649236866488B420AD140698007FD
:1050D000800F09D001282CD0022828D0032816D10F
:1050E00013E060498B4201D1002111E093420ED1BF
:1050F00041690320800201400AD001208002091A80
:1051000017D0091A13D0814201D1082100E01021E3
:105110000120554D554FC00393423BD100290AD081
:10512000022911D0042909D008297DD10BE00221E0
:10513000EEE70421ECE7FDF743FF01E0FDF754FF44
:10514000050001D17AE00546606A4000395A2846D8
:105150000091FBF7B6F8676879007918814269D841
:105160003903814266D3002328461946009AFBF78B
:1051700007F8020E090203027808114318180022EA
:1051800051413A460023FAF7FBFF03210902411A75
:10519000374A4DE0E269824228D1002906D002292F
:1051A00007D0042907D0082944D108E0FDF708FFFB
:1051B00003E0284603E0FDF717FF00283ED0616AB0
:1051C0004900795AFBF77DF8616840004A08801869
:1051D000FBF777F880B20146264A1039914229D868
:1051E000511C01400007400F084325E0002906D06C
:1051F000022907D0042907D008291BD108E0FDF7B0
:10520000DFFE03E0284603E0FDF7EEFE002815D0A0
:10521000616A4900795AFBF754F861684A088018B6
:10522000FBF74FF880B200E004E00146114A103964
:10523000914201D9012601E02168C8602046012180
:105240004030418501850020206760673046F8BD09
:1052500000800040F369FFCFFFF4FF1100380140E8
:1052600040100240004400400024F400F0610008B7
:10527000FFFC0F00EFFF0000FFB581B005461746A9
:10528000044680350A9E54E0701C52D0FDF776FA31
:105290000499401AB0422FD8002E2DD02068016802
:1052A000490746D5C069C043000542D401202168A2
:1052B000C0020862EFF31080012181F31088216899
:1052C0000B68FF22A13293430B6080F31088EFF349
:1052D0001080012181F3108821688A6852085200E9
:1052E0008A6080F3108820206860A860E860002051
:1052F0002870032005B0F0BDEFF31080012181F389
:10530000108821680A68FF23A1339A430A6080F35A
:105310001088EFF31080012181F3108821688A68DA
:10532000520852008A6080F3108820206860A860CC
:10533000DDE72068C1690298884304D00020B842A4
:10534000A2D00020D6E70120F9E7000010B50248FE
:10535000FEF74CFB10BD00005804002010B50D48AE
:10536000007C032810D007DC002804D0022802D1DA
:10537000094800F021FD10BD2A2808D02B28FAD1B9
:1053800006490020087010BD00F09EFD10BD00F021
:105390000DFDF9E7380600200000A042FC000020C7
:1053A00006484178002907D08178002904D00021DF
:1053B0008170034901200874704700002800002014
:1053C0003806002010B50446FFF7EAFF00F088F821
:1053D0002046FFF7C3FF10BD70B50D460446816936
:1053E000406900F09DFEA16A00F09AFD2061E1692C
:1053F00000F0DCFD09D20121E069C90748402169BC
:1054000000F0D4FD01D200202061206A4000000E8F
:1054100012D0616A4800000E0ED0206900F0C6FD6F
:1054200001D8606A07E0216A206900F041FE01D2DC
:10543000206A00E0206920612946206900F0E0FD33
:10544000216B00F06DFD2063616B4900090E11D0E6
:10545000A16B4A00120E0DD000F0A8FD01D8A06B80
:1054600007E0616B206B00F023FE01D2606B00E06F
:10547000206B2063A169E06A00F052FE2946FBF729
:105480005DFD0146A06800F0BBFD0646216B60682B
:1054900000F0B6FD05462169206800F0B1FD2946FF
:1054A00000F03EFD314600F03BFDE060E16B49005D
:1054B000090E11D0216C4A00120E0DD000F076FDBD
:1054C00001D8206C07E0E16BE06800F0F1FD01D24B
:1054D000E06B00E0E068E060A069E06270BD0000A1
:1054E00000B51648017C032919D009DC002915D024
:1054F00001290BD0022911D10322FF21F53110E03F
:105500002A2912D02B2909D1002106E0418A491EFF
:1055100009B24182002901DC0221017400BD084961
:105520002A220A20FCF7E2FA00BD064A91684B1EC7
:1055300093600029F8DA2B21EFE7000038060020FD
:10554000102700002800002030B5054C256868634E
:1055500020688163034801684A630068836330BD43
:10556000300300207C03002070B5054609484168DF
:10557000284600F045FD084CE16900F0D1FC0146E9
:10558000E061284600F03CFD216A00F0C9FC206281
:1055900070BD0000D4080020C8000020F1B5304DD7
:1055A00030486E6982B0864202DC2F48864200D9BC
:1055B00006466E613146029800F022FDA96900F0AE
:1055C000AFFCA861296A019100F0AAFD274C21686F
:1055D00000F016FDA8620746E9693046009100F028
:1055E0009FFD616800F00CFD6862A26806460146F6
:1055F000104600F005FD029900F002FDE96A00F096
:105600008FFC1B490446E862884201DD0C4603E03A
:105610001848844200D90446EC623946029800F0EA
:10562000EFFC019900F07CFC0746286231462046D9
:1056300000F076FC029900F0E3FC009900F070FCA9
:105640000D49E8618F6008606878002803D00B4836
:105650000078002803D100F013F801206870FEBD27
:10566000C80000200000FA430000FAC354080020DC
:1056700000004842000048C2D4080020FC0000207E
:1056800003480021816141610162C16170470000EE
:10569000C800002070B5054614481549006B00F09D
:1056A000AFFCFBF7FBFC134CE0602278002A03D030
:1056B000521E2270206170BD2169461AA660206BBF
:1056C000301AFBF74DFD2946FBF738FCFBF7E6FCEB
:1056D00026636060FBF744FD60610848064901608D
:1056E0003F21090641600649816070BD6C080020B9
:1056F0000000C842C8000020CDCC4C3F5408002018
:10570000CDCC4C3E4900CA020243100000D0042018
:105710004A0D01D001221043044A490D914201D1A2
:1057200002210843012800D105207047FF0700002F
:105730004100080200D004200A0E01D001221043CB
:10574000090EFF2901D102210843012800D10520BB
:10575000704700008307FF22DB0E9A408907090E7D
:105760009940002808DB830809489B001B1818682B
:1057700090430843186070470007000F08388308FB
:1057800004489B001B18D86990430843D8617047B0
:1057900000E400E000ED00E0F8B504464F1EC8004C
:1057A0000838211815461E46086849683A460623F7
:1057B0009A4310D02A463346FBF742FA3A46D200C3
:1057C000083AA3181A687F1E5B68FAF7E5FF0622FD
:1057D0003B469343EED1022F23D0042F11D0062F46
:1057E0002FD12A463346FBF72BFAE36AA26AFAF76F
:1057F000D3FF2A463346FBF723FA636A226AFAF795
:10580000CBFF2A463346FBF71BFAE369A269FAF796
:10581000C3FF2A463346FBF713FA63692269FAF796
:10582000BBFF2A463346FBF70BFAE368A268FAF798
:10583000B3FF2A463346FBF703FA63682268FAF798
:10584000ABFFF8BD10B50122FBF71EFB10BD002217
:1058500010B5134610461146FAF7CEFF10BD0000F2
:10586000034A10B500201107FBF70EFB10BD000026
:1058700001FDFFFF10B500F053FB10BD5E2110B518
:10588000C9430807FBF778FC10BD0000F0B50446DB
:105890004F008E488FB07F080D460D91874228DB60
:1058A0004042381820430CD08948874203DC8742A5
:1058B00018D1002C16D020462946FFF7C3FF0FB0A1
:1058C000F0BD844A844B20462946FBF7B9F90746C8
:1058D0000E46824A824B20462946FBF7B1F93A46EA
:1058E000334649E00120FBF76EFCFFF7B0FF0FB035
:1058F000F0BD7C48874243DAF920800587420BDA05
:1059000020462946FFF7FEFE042801D1FFF7A8FF35
:10591000204629460FB0F0BD22462B4610462946A8
:10592000FBF78EF9064602466F480F460B460621E6
:105930007844FFF731FF32463B46FBF781F906908A
:105940006A48079132463B4604217844FFF724FF1A
:1059500032463B46FBF774F900225C4BFAF71CFF1A
:1059600002460B4607990698FAF746FF22462B4651
:10597000FBF766F922462B46FAF70EFF0FB0F0BD93
:105980002046524C6900490800222346FAF71CFFC2
:105990000022D243FBF778FA0546024654480E46E9
:1059A0000B4606217844FFF7F7FE2A463346FBF7FD
:1059B00047F906904F4807912A4633460421784418
:1059C000FFF7EAFE2A463346FBF73AF90022234660
:1059D000FAF7E2FE059104902846314600F07CFA81
:1059E000089045480C46874219DB059B049A0799A5
:1059F0000698FAF701FF02460B4621460898FBF786
:105A00001FF92346089AFAF7C7FE0122FBF73CFA72
:105A1000304A314BFAF7CDFE304A314B4AE000278D
:105A20003A460B460898FAF7B7FE3A4623460A91DB
:105A30000E9010461946FBF703F92A463346FAF74B
:105A4000C3FE0A9B0E9AFAF7D7FE05460E46059B43
:105A5000049A07990698FAF7CFFE00910490012264
:105A600028463146FBF710FA1A4A1B4BFAF7ACFEF0
:105A70000E460546012221460898FBF705FA009BD1
:105A8000049AFBF7DDF82A463346FAF792FE0546FC
:105A90000E46012238462146FBF7F6F90F4C174F08
:105AA00022463B46FAF790FE2A463346FAF78CFE2A
:105AB00022463B46FAF788FE0D9A002A00DD5DE794
:105AC0000122D20751400FB0F0BD00000000F03FAE
:105AD0000000F07F075C143326A6913C182D445437
