:020000040800F2
:10000000400B0020650100085D270008BF220008A2
:1000100000000000000000000000000000000000E0
:100020000000000000000000000000006127000840
:1000300000000000000000005F27000863270008A0
:1000400077010008770100087701000877010008B0
:1000500077010008770100087701000877010008A0
:1000600000000000BD040008CD040008A50400083D
:100070007701000877010008770100087701000880
:100080007701000877010008770100087701000870
:1000900000000000770100087701000877010008E0
:1000A0007701000877010008770100087701000850
:1000B000693000087701000800000000000000001F
:1000C00000F002F800F03EF80CA030C80838241800
:1000D0002D18A246671EAB4654465D46AC4201D180
:1000E00000F030F87E460F3E0FCCB6460126334274
:1000F00000D0FB1AA246AB46334318477C300000C1
:100100009C300000103A02D378C878C1FAD8520760
:1001100001D330C830C101D504680C6070470000BD
:100120000023002400250026103A01D378C1FBD813
:10013000520700D330C100D50B6070471FB51FBDFB
:1001400010B510BD00F07BF91146FFF7F7FF02F084
:10015000B5FF00F093F903B4FFF7F2FF03BC00F022
:1001600099F900000748804707480047FEE7FEE787
:10017000FEE7FEE7FEE7FEE704480549054A064BB1
:100180007047000001280008C10000084005002059
:10019000400B00204007002040070020FEB5054628
:1001A00010460C46184373D0AE468C460020AD1A5C
:1001B00001469C4167D36646002701243D46B61A96
:1001C0009D4102D313463A462124654676462F04C4
:1001D000360C3E432D0CB61A9D4104D3150C1B045E
:1001E0002B4312041034654676462F06360A3E43EA
:1001F0002D0AB61A9D4104D3150E1B022B43120281
:100200000834654676462F0736093E432D09B61A4F
:100210009D4104D3150F1B012B431201241D65467C
:100220007646AF07B6083E43AD08B61A9D4104D3E3
:10023000950F9B002B439200A41C65467646EF0762
:1002400076083E436D08B61A9D411AD392185B4159
:10025000641C16E00018764665464941B71A9D4170
:100260000191009009D36046B11A98418E468446A8
:10027000009801990025401C6941DD0752082A4376
:100280005B08641EE6D57246634603B0F0BDFFE727
:1002900000200146C046C0462A462346F5E701E055
:1002A00004C0091F0429FBD28B0701D50280801CE2
:1002B000C90700D00270704700290BD0C30702D0D5
:1002C0000270401C491E022904D3830702D5028014
:1002D000801C891EE3E70022EEE70022DFE7002210
:1002E00003098B422CD3030A8B4211D300239C4673
:1002F0004EE003460B433CD4002243088B4231D3EB
:1003000003098B421CD3030A8B4201D394463FE07E
:10031000C3098B4201D3CB01C01A524183098B42DE
:1003200001D38B01C01A524143098B4201D34B01C7
:10033000C01A524103098B4201D30B01C01A52412A
:10034000C3088B4201D3CB00C01A524183088B42B1
:1003500001D38B00C01A524143088B4201D34B009A
:10036000C01A5241411A00D201465241104670470C
:100370005DE0CA0F00D04942031000D34042534011
:1003800000229C4603098B422DD3030A8B4212D3D1
:10039000FC22890112BA030A8B420CD38901921103
:1003A0008B4208D3890192118B4204D389013AD040
:1003B000921100E08909C3098B4201D3CB01C01A15
:1003C000524183098B4201D38B01C01A5241430928
:1003D0008B4201D34B01C01A524103098B4201D316
:1003E0000B01C01A5241C3088B4201D3CB00C01A83
:1003F000524183088B4201D38B00C01A5241D9D29B
:1004000043088B4201D34B00C01A5241411A00D21B
:100410000146634652415B10104601D34042002B17
:1004200000D54942704763465B1000D3404201B596
:100430000020C046C04602BD7047704770477546F1
:1004400000F024F8AE46050069465346C008C000D7
:10045000854618B020B5FFF78FFE60BC002749081D
:10046000B6460026C0C5C0C5C0C5C0C5C0C5C0C54C
:10047000C0C5C0C5403D49008D46704710B5044613
:10048000C046C0462046FFF766FE10BD00487047D4
:10049000DC04002001491820ABBEFEE72600020064
:1004A0007047000010B5034800F032FB024800F02E
:1004B0002FFB10BD0C0100206801002010B5024880
:1004C00000F026FB10BD00002404002010B50348F6
:1004D00000F01EFB024800F01BFB10BD8004002052
:1004E000C803002010B50446006C0949800880004C
:1004F00040186064207814210838FFF7F0FE0449A2
:100500008031A164C106C90E01208840E06410BD9D
:10051000000802400179084B8906890E8A00D2182A
:100520000265054A4432491E42658A07920F01213D
:100530009140816570470000FC08024072B6FEE7FA
:10054000F8B500270646044640360097307D0D4634
:1005500001280FD001203075206801F0B5FE002879
:100560000AD0A06D20210843A06501270020307526
:100570003846F8BD0220F8BD686802287ED0012206
:100580002169D207914202D0121D914206D1206802
:100590002968826A4903490B0A436EE0C206D20EFB
:1005A0000F20216E904081432868430302D0C30787
:1005B0004BD102E04000C00E48E0830701D5012086
:1005C00044E0430701D5022040E0030701D50320A2
:1005D0003CE0C30601D5042038E0830601D50520A0
:1005E00034E0430601D5062030E0030601D507209C
:1005F0002CE0C30501D5082028E0830501D509209A
:1006000024E0430501D50A2020E0030501D50B2095
:100610001CE0C30401D50C2018E0830401D50D2093
:1006200014E0430401D50E2010E0030401D50F208F
:100630000CE0C30301D5102008E0830301D511208D
:1006400004E0400301D5122000E000209040014367
:1006500021666968E2698808401C904210D82068C9
:100660002B68826A9C46C906C90E0F238B409A43A9
:1006700063469B001B0F8B401A4300E03BE0826205
:100680002168AB6828684A6900028243184040012B
:10069000400902434A612868002800DB66E72B4ACC
:1006A000116807239B051940294B984214D10B026E
:1006B00012D4C0020143104601F00AFE2648254923
:1006C0000068FFF70CFE0C21401C484300E0401E70
:1006D00000900028FBD149E7204B984203D1CB0181
:1006E00001D4800205E01E4B9842D7D14802D5D4F0
:1006F0005802014325E001212069C907884202D040
:10070000091D884206D120682968826A4903490B7D
:100710008A43826228680028C0DA0C4A11680723DD
:100720009B0519400A4B984201D1C00208E00B4BCF
:10073000984201D1800203E0094B9842AED14002B9
:100740008143104601F0C4FD10E700000827014076
:10075000001000B0400D03000C000020004000B865
:10076000002000B4F0B50446002087B00390064690
:1007700002900090002C05D02746A06D203700285D
:1007800003D009E0012007B0F0BD204600F018F9C1
:100790000020E0655421085520688168C900C90F10
:1007A00012D181687D4A11400122120711438160F4
:1007B0007C487B490068FFF792FD4000801C00E008
:1007C000401E00900028FBD120688168C900C90F35
:1007D00008D1A16D10221143A165E16D01221143E1
:1007E000E165039201F070FDA16DC90601D40028F6
:1007F00004D0A06D10210843A065CCE0A06DFF21BE
:100800000131884302210843A065206801F058FDAA
:10081000002833D12068C16818229143A26811438F
:10082000C1606068E16C800F8007024632430E466B
:10083000397F1643012908D1626C216C401C114399
:10084000A26C024308461043064320680169564AD9
:1008500011403143016103216068890788420DD04E
:10086000510788420AD04900884207D04F4A916810
:100870000F239B049943184001439160207E850318
:10088000607EC0030543A07E41030D43216B002918
:1008900001D0012109030D43E1680D4321690029BD
:1008A00002DA4900490801E0012149050D43397B7D
:1008B00049000D4302990D433978012909D10028D7
:1008C00056D0A06D20210843A065E06D01210843AA
:1008D000E065606A002806D0FF22C1321040A16A9C
:1008E00028430D4605432068C168314A1140294319
:1008F000C160216808692F4A104030430861002117
:10090000626B206801F0EBFC2B49A26B206801F0C0
:10091000E6FC0F212069C94300282DD00122520591
:10092000904216D1226E002086001346F340DB432E
:100930001B0702D0401C0828F6D301281CD02068D1
:10094000836A237F9B001B1FDB06DB0E994011434C
:1009500081622068C06819490840A84211D100206E
:10096000E065A06D80088000401CA06503980AE740
:10097000012000040543ACE72068826A0A438262D2
:10098000E7E7A06D0221884310210843A065E06DD0
:1009900001210843E06501200390F4E6E8FFFF7FB2
:1009A000400D03000C00002002FCFF1F0027014047
:1009B0001902FEFF02FCFFDF04FFFF07E7FF3F8392
:1009C00010B586B0044614216846FFF786FC11492D
:1009D000206888421BD110480268012109050A439A
:1009E00002600068084005900B484038426B0221C5
:1009F0000A434263406B08400590042000900320A6
:100A00000190002002906946044800F02FF906B0DA
:100A100010BD0000002401404010024000040050BE
:100A2000F0B5002808D0014620314A79022A05D0C5
:100A30000422C263002008710120F0BD026813681F
:100A40000E24A3431360426C1468FF2301339C43BC
:100A50001460026814686408640014600C4A5568E5
:100A6000066C1C24264001242746B7403D435560B0
:100A7000826CC56C5560026D002A05D015689D43D7
:100A80001560826D406D42604C7100200871F0BDB0
:100A900000000240F8B500240246203251790229B4
:100AA00003D00421C16301242DE001680B680E25E9
:100AB000AB430B6001680B685B085B000B60416C2B
:100AC0000B68FF250135AB430B6010494D68066C80
:100AD0001C231E4001231F46B7403D434D60816CDF
:100AE000C56C4D60016D002906D00E681D02AE4335
:100AF0000E60416D856D4D60537100211171816BE8
:100B0000002900D088472046F8BD000000000240C0
:100B1000F0B42C490C6802681368056C1C273D4032
:100B20000426AE40264211D05E070FD513689B06FF
:100B300003D4146804239C4314604B68046C04229F
:100B40003C40A24013434B60016B1CE00227AF40C6
:100B5000064627402036002F19D09F0717D5136867
:100B60009B0605D413680A24A34313600122727103
:100B70004B68046C1C2214400222A24013434B60B9
:100B800000213171C16A00291AD0F0BC084708273A
:100B9000AF40274214D01B0712D513680E24A3437D
:100BA00013604B68046C1C22144001221546A540BA
:100BB0002B434B60C263727100213171416BE2E7DC
:100BC000F0BC70470000024070B504003FD02548DB
:100BD000256814212818FFF782FB8000206402207A
:100BE00026462036707128681F4908402860E16851
:100BF000A06862690843216911430843A169084359
:100C0000E1690843216A084321680A6810430860C3
:100C10002046FFF767FC0121A06889030025884270
:100C200000D165602079616C8006800E0860A06C40
:100C3000E16C41606068401E03280AD82046FFF737
:100C400069FC206D0560606DA16D416004E00120CC
:100C500070BD25656565A565E56301207071357119
:100C6000002070BDF8FFFDBF0F80FFFFF0B500232F
:100C7000032498E001259D402A407DD00E79B607D7
:100C8000B60F012E01D0022E16D186682746B44633
:100C90005E00B646B7406646BE43B446CF68764669
:100CA000B7406646374387604668AE430D79ED0628
:100CB000ED0F9D40354345600D79ED43AD0708D0FC
:100CC000C5685F002646BE40B5438E68BE402E43D1
:100CD000C6600D79AD07AD0F022D0ED1DD08AD0058
:100CE0002D18AC462D6A5E07F60E0F27B740BD43A0
:100CF0000F69B7402F4365462F6205685F0026469F
:100D0000BE40B5430E79B607B60FBE402E4306600F
:100D10004D68AD03AD0F45D09E08264DB600751940
:100D2000AC462D6E9E07F60E0F27B740BD43052734
:100D30003F07B84201D100270FE01F4FB84201D151
:100D400001270AE01D4FB84201D1022705E01C4FE0
:100D5000B84201D1032700E00527B7402F4365467D
:100D60002F66144E803635684F689543FF0300D5D3
:100D700015433560756800E014E04F689543BF0384
:100D800000D5154375600B4E35684F689543FF02DB
:100D900000D51543356075684F689543BF0200D58F
:100DA000154375605B1C0A681546DD4000D061E79D
:100DB000F0BD000000180240000400500008005080
:100DC000000C0050002A01D0816170478162704799
:100DD00001488068704700000000002070B50400E2
:100DE00005D0254680356868002802D006E001203D
:100DF00070BD00202870204601F0BEF924206860F4
:100E000020680168490849000160204601F0BCFFE4
:100E10000128EDD0A06A002802D0204601F0E0FEB3
:100E2000206841680922D2029143416020688168AC
:100E300022229143816020688168082211438160E9
:100E400020680168012211430160204601F02EFF55
:100E500070BD70B5024640325378202B1CD11378F8
:100E6000012B19D0012313702424547004682568C1
:100E70009D432560046825681E03B543256004680A
:100E800025680D4325600068016819430160202032
:100E900050700020107070BD022070BD70B5024609
:100EA00040325378202B1BD11378012B18D001240A
:100EB00014702423537003681D68A5431D600568E2
:100EC0002B680F263602B3430902194329600068D4
:100ED000016821430160202050700020107070BD17
:100EE000022070BD70B5040006D0254640356878F4
:100EF0000026002802D005E0012070BD2E7020469B
:100F000000F04AF824206870206801684908490008
:100F100001600F2160680906884321680861216823
:100F20008A680120C00382438A60E1680129A168C0
:100F300008D021229202114322689160E1680229BF
:100F400002D005E00143F7E701212268C9025160A0
:100F500021684A680F4B1A434A602168CA68824375
:100F6000CA60616920690843A169090208432168D0
:100F7000C860216AE0690843216808602068016848
:100F80000122114301606664202068702663AE7000
:100F9000002070BD00800002F0B587B00646142125
:100FA0006846FFF79AF9384B3268384D122106200F
:100FB00000249A4248D16B6B022213436B636B6B24
:100FC00001911340C201059304900294039400928E
:100FD00069462F48FFF74AFEE96B012040050143AF
:100FE000E963E96B2C4D01402A4805912860AC600B
:100FF000EC606C61AC618027EC612F610A202C628F
:1010000068602846FFF7E0FD002801D0FFF796FA58
:10101000F563AE62204D1F485C35143028600B200C
:10102000686029461020083191C16C61AC61EC61A7
:1010300028462C62FFF7C8FD002801D0FFF77EFA92
:10104000B563AE6207B0F0BD144B9A42FAD16A6B39
:1010500001231A436A636A6B04901A4005920322C3
:10106000D202019105200294039400926946000780
:10107000FFF7FCFDE96B012080050143E963E96BA3
:1010800001400591DEE700000054004000100240DE
:1010900000040050440002400C01002000580040B1
:1010A000024881680278891881607047000000203A
:1010B00010B508480024016882151143016003201F
:1010C00000F00AF8002801D0012401E000F028F81F
:1010D000204610BD0020024070B50F4E002431782C
:1010E0000546002915D07D20C000FFF7F8F801461D
:1010F0000A480068FFF7F3F800F034FC002808D134
:10110000042D06D200222946401E00F02BF87560FF
:1011100000E00124204670BD000000200C000020EB
:1011200008B50948016801221143016000681040B8
:10113000009005484038C26B01040A43C263C06B8B
:101140000840009008BD000040100240002805DB68
:10115000C106C90E0120884001490860704700009F
:1011600000E100E010B501F087FF10BD10B50F4C95
:10117000216803225202914301432160C11FFF39BC
:10118000FA390ED10A480621006848430949FFF799
:10119000A6F8401C02E0002805D0401E6169490500
:1011A000F9D4002010BD032010BD000000700040E5
:1011B0000C00002040420F00F8B5044600680026ED
:1011C000664D800358D5654800274038C06BC00085
:1011D00009D462484038C26B01040A43C263C06B41
:1011E0000840012700905E480168821511430160A4
:1011F000FFF7EEFD009005E0FFF7EAFD0099401AC9
:10120000022825D856480068C005F5D5E8690321AD
:10121000090208400FD0616A81420CD0E8690321BD
:101220000902EA698843012109040A43EA61EA697B
:101230008A43EA61E861C0070FD0FFF7C9FD00905B
:1012400008E0FFF7C5FD0099411A4648814201D9DF
:10125000032609E0E8698007F3D5E869032109025C
:101260008843616A0843E861002F05D03B48403855
:10127000C26B01048A43C2632078C00705D0686945
:10128000616880088000084368612078C00606D540
:101290006869032189028843A1680843686120883E
:1012A000800506D56869032189048843616908437C
:1012B00068612088400506D56869032109058843CF
:1012C000A169084368612078800606D56869032112
:1012D00009038843E168084368612088400411D508
:1012E0006869E16980008008084368610121E0695C
:1012F0008907884206D119484038C1680122120482
:101300001143C1602068800210D5686901218905F8
:10131000226A884310436861206A884206D10F48D8
:101320004038C168012212061143C16020880005BF
:1013300012D56869032189038843216908436861DC
:10134000012120698903884206D104484038C168D8
:10135000012212041143C1603046F8BD4010024022
:101360000070004088130000F8B50F46060043D017
:101370004D4D28684007400FB84213D22868C00876
:10138000C00038432860FFF723FD044605E0FFF75F
:101390001FFD011B4548814261D828684007400F66
:1013A000B842F4D13068424C81070DD5400704D5CE
:1013B000A068072109030843A060A0680F21090263
:1013C0008843B1680843A0603078C00732D07068A5
:1013D00001280AD002280BD000280FD03449403110
:1013E00003280ED0C969890704E02168890301E058
:1013F00021688901002906DB0120F8BD2168490523
:10140000F8E7096AEFE7A168C908C9000143A160CC
:10141000FFF7DEFC009006E0FFF7DAFC0099411AC6
:10142000224881421BD8A068382108407168C90051
:101430008842F1D128684007400FB84217D91A48AE
:101440000168C908C90039430160FFF7C1FC0546BE
:1014500007E0FFF7BDFC411B1448814201D903207E
:10146000F8BD114800684007400FB842F1D130780C
:10147000400706D5A068072109038843F16808439F
:10148000A06000F031F8A1683C2289091140094AA6
:10149000515CC906C90EC840074908600748006882
:1014A000FFF71AFEF8BD000000200240881300007C
:1014B00000100240183100080C0000200400002039
:1014C0000648074900688968064A4904490F8900A7
:1014D000515CC906C90EC840704700000C000020CE
:1014E000001002405831000810B5204CA068204A76
:1014F0008006400F16D0A0688006410F50100129C9
:101500000FD0A1688906490F022912D0A068800671
:10151000400F042823D0A0688006400F032821D064
:10152000002010BD206801218004400F814010463A
:1015300012E0E1688B07E1689B0F4906490F491CDF
:10154000032B00D01046FEF7CAFEE1684904490E9D
:101550004843E168490F491CFEF7C1FE10BD012058
:10156000C00310BD7D20000210BD0000001002402D
:101570000024F400F8B504007ED020783827C00796
:10158000EF4D002846D0A868E96838408907890FE0
:10159000102802D008280BD001E0032908D0012030
:1015A0006268000482420AD129680143296015E07B
:1015B000286880032ED560680028DDD02AE0052346
:1015C00001211B0489049A422A6802D10A432A6035
:1015D000EAE782432A602868884328606068002818
:1015E0000CD0FFF7F5FB064604E0FFF7F1FB801B8C
:1015F000642873D828688003F7D50BE0FFF7E8FB71
:10160000064604E0FFF7E4FB801B6428F1D8286855
:101610008003F7D42078800769D5A868E968384046
:101620008A070721920FC902102802D0002813D080
:1016300001E0022A10D0E068002846D028688843DC
:101640002169084328602868FF2101310843286088
:10165000FFF7BEFB06462CE02A68520502D5E26879
:10166000002A89D06A687F231B029A4363691B02A0
:101670001A436A60002800E08DE00ED12868884394
:10168000216908432860286801218004400F8140B7
:10169000AC48FEF724FEAC490860AC480068FFF790
:1016A0001BFD002877D122E0FFF792FB801B022868
:1016B0009FD828684005F7D568687F2109028843CC
:1016C000616909020843686011E02968FF20013060
:1016D00081432960FFF77CFB064605E098E0FFF7B1
:1016E00077FB801B022884D828684005F7D420782F
:1016F000974E00072ED5A8688006400F03280AD011
:10170000A0690028306A16D0012108433062FFF733
:101710005FFB07460BE0306A80071BD5A0690028F5
:101720009FD017E0FFF754FBC01B022870D8306A27
:101730008007F7D50EE0400840003062FFF748FB15
:10174000074604E0FFF744FBC01B022860D8306A5C
:101750008007F7D4207840076CD5A868002780065A
:10176000400F042818D0E86BC00008D4E96B0120B2
:1017700000070143E963E96B0140012700917548C7
:101780000168C90519D40168821511430160FFF78A
:101790001FFB00900DE083E0F06980074AD5A06848
:1017A00000287DD046E0FFF713FB0099401A02287D
:1017B0002ED868480068C005F5D5A168012910D069
:1017C00004200529F16911D049084900F161F16946
:1017D0008143F161A068002816D0FFF7F9FA009064
:1017E0000EE0F06901210843F061F3E70143F16184
:1017F000F7E7FFF7EDFA0099411A574881426FD891
:10180000F0698007F5D50EE0FFF7E2FA009007E0F7
:1018100066E0FFF7DDFA0099411A4F4881425FD830
:10182000F0698007F5D4002F04D0E86B0121090787
:101830008843E863E06900287FD0A9688906490FDA
:10184000022953D001263606022828680DD0B0435D
:101850002860E86880088000E860E8683F49084040
:10186000E860FFF7B5FA04463CE0B0432860FFF7B4
:10187000AFFA074604E0FFF7ABFAC01B02282FD8E7
:1018800028688001F7D4616A206AA26A0843E16A85
:10189000120211430843216B0843616B084300E0C7
:1018A00049E0E9682E4A11400843E860286830435F
:1018B0002860E868012109070843E860FFF788FA13
:1018C000044604E0FFF784FA001B022808D82868C1
:1018D0008001F7D531E0FFF77BFA001B022801D920
:1018E0000320F8BD28688001F5D426E00128F8D04F
:1018F000E868226A8107890F91421CD17021626ACF
:101900000140914217D17F21A26A090201401202CF
:10191000914210D11F214904E26A014091420AD14B
:1019200007214906226B0140914204D1400F616BAF
:101930004007884201D00120F8BD0020F8BD00001A
:10194000001002400024F4000C00002004000020DD
:10195000401002400070004088130000FFFFFEEEC0
:101960008C80C111094910B5401E884201D901205F
:1019700010BD074C60610321081F01F07DFB0020B2
:10198000A06107202061002010BD0000FFFFFF00C4
:1019900000E000E0F0B5034620331A7F012A28D08A
:1019A00001221A7702225A7704686268A568124FEA
:1019B000BC4205D116460F22120596434A683243AF
:1019C0007026B2430E68164366600068B84206D0BF
:1019D00001229207904202D0084A904204D180220C
:1019E0008968954329438160012058770020187742
:1019F000F0BD0220F0BD0000002C014000040040BA
:101A000070B5040005D025462035687F002802D037
:101A100006E0012070BD00202877204600F016F86F
:101A200002206877211D206800F0ECFE012240347E
:101A30002272AA77EA7722706270A270E270227135
:101A40006271A271E2716A77002070BD08B5016809
:101A50001048814206D110480268C1140A4302604E
:101A6000006815E00C48012292074038914207D1E6
:101A7000C16B01221143C163C06B1040009008BDCF
:101A8000064A9142FBD1C26B02210A43C263C06B7A
:101A90000840F3E7002C01404010024000040040E1
:101AA00070B5054604462035287F012817D0012649
:101AB0002E7702206877226890682E4B1840FF230B
:101AC0001B02984390600A68502A32D00EDC202A0C
:101AD0004CD006DC002A49D0102A3BD146E0022037
:101AE00070BD302A42D0402A34D137E0602A28D055
:101AF000702A12D001200003121A2BD0824229D161
:101B0000CB684A688968206800F0BEFE206881685A
:101B100001229203114381601CE0CB684A68896806
:101B2000206800F0B1FE2168886877221043886041
:101B300010E0CA684968206801F00CF8502120685C
:101B400006E0CA684968206801F015F8602120683D
:101B500000F0A6FE6E770020287770BDCA6849683D
:101B6000206800F0F7FF40212068F1E71146206867
:101B7000EEE7000088FFCEFF70B586B00446142162
:101B80006846FEF7AAFB012625680520B607002453
:101B90001249012302220007B5420BD14D6B1D43B0
:101BA0004D63496B6D4619400591032116C5039499
:101BB00004920EE00A4EB5420ED14D6B1D434D63AB
:101BC000496B6D46C907C90F0591C02116C503941D
:101BD00004936946FFF74AF806B070BD0010024052
:101BE00000040040F8B5064604462036307F0D4616
:101BF00001280CD00120082730770C2A44D008DCBB
:101C0000002A0BD0042A19D0082A77D12CE0022010
:101C1000F8BD102A4ED0142A70D15BE0206800F085
:101C200049FE206881693943816120688169042205
:101C300091438161206881692A6912E0206800F07F
:101C400077FE206881690122D202114381612068F8
:101C50008269012189028A438261206881692A6937
:101C600012021143816149E0206800F09FFE206864
:101C7000C1693943C1612068C16904229143C161CE
:101C80002068C1692A6912E0206800F0CDFE206852
:101C9000C1690122D2021143C1612068C2690121D8
:101CA00089028A43C2612068C1692A69120211430C
:101CB000C16123E0206800F0EDFE2068416D3943EA
:101CC00041652068426D04218A4342652068416D68
:101CD0002A6911E0206800F00BFF2068416D0122A5
:101CE000D202114341652068416D52109143416514
:101CF0002068416D2A691202114341650020307746
:101D0000F8BD70B5040005D025462035687F002851
:101D100002D006E0012070BD00202877204600F0A8
:101D200016F802206877211D206800F06BFD012263
:101D300040342272AA77EA7722706270A270E27051
:101D400022716271A271E2716A77002070BD7047E2
:101D500010B5014680310A78012A15D001220A7097
:101D600024224A60026813681468640864001460DE
:101D7000012252079343002242660068036020203C
:101D800048600A70104610BD022010BD70477047B1
:101D900070B5044605468034207801281AD0012009
:101DA000207024206060286806680268520852008B
:101DB00002602868826807235B069A430A438260B0
:101DC000284600F0EBFE28680660202060600020B6
:101DD000207070BD022070BD70B504460546803489
:101DE0002078012819D00120207024206060286804
:101DF0000668026852085200026028688268D200B1
:101E0000D2080A438260284600F0C8FE28680660AF
:101E1000202060600020207070BD022070BD7047DF
:101E200070477047F8B503680446D96918689A681E
:101E3000B24D0E462E4025468035002E75D0B04E50
:101E4000B04F1640074037436ED0CF0706D0C705C6
:101E500004D501271F62EB683B43EB608B0708D575
:101E6000D30706D0276802233B62EB6804273B4375
:101E7000EB604B0708D5D30706D0276804233B62E5
:101E8000EB6802273B43EB600B0709D52023034097
:101E9000334305D0266808233362EE681E43EE60A4
:101EA0000B0509D5430107D501232668DB02336200
:101EB000EB6820263343EB60EB68002B42D08906A9
:101EC0000AD520210840C9050A40104304D0216FDB
:101ED000002901D020468847E868216889684906BA
:101EE00002D42821084232D0204600F01BFF21688E
:101EF0008868400627D5EFF31080012282F310880E
:101F00008B68402293438B6080F31088E06F002839
:101F100019D07D498163E06FFEF7BCFD002811D028
:101F2000E06F816B0DE000E017E08E0615D501270C
:101F300020263F07064017403E430ED0216FB1E0F8
:101F400020468847F8BD2046FFF76BFFF8BD2046C6
:101F5000FFF767FF0020E860F8BDE66E012E7CD138
:101F6000CE067AD5C60678D510221A6223689868FC
:101F7000264640064036002847DAE16F0868406888
:101F80000004000CE8D0B78B8742E5D9F0830868DD
:101F90000068800634D4EFF31080012181F31088AB
:101FA00019681701B943196080F31088EFF31080A6
:101FB000012181F3108821688B685B085B008B60CE
:101FC00080F31088EFF31080012181F310882168DD
:101FD0008B684027BB438B6080F310882020A8606B
:101FE0000020E066EFF31080012181F31088216862
:101FF0000B6893430B6080F31088E06FFEF710FDD1
:10200000B08BF18B401A81B233E0B08BF18B401A68
:1020100081B2F08B00289FD000299DD0EFF3108073
:10202000012686F310881E68FF272137BE431E60F5
:1020300080F31088EFF31080012383F31088236866
:102040009E682F4FFF433E409E6080F31088202003
:10205000A8600020E066206700E00EE0EFF310804B
:10206000012383F3108823681D6895431D6080F366
:1020700010882046FFF78AFEF8BDCE0208D556022A
:1020800006D50120000518622046FFF7C9FEF8BDFD
:102090000E060BD501278026FF0506403A40164361
:1020A00004D0616F002900D04AE7F8BD4A0614D574
:1020B000420612D52046EFF31081012282F31088E8
:1020C0001C68402294431C6081F3108820216960C1
:1020D0000021416700F0F2F8F8BD0A0205D5420080
:1020E00003D52046FFF79BFEF8BDC901FCD50028AB
:1020F000FADA2046FFF74BFEF8BD00000F0800009B
:102100000100001020010004112D000870B504002A
:1021100005D0254680356868002802D006E00120F9
:1021200070BD00202870204600F026F8242068604A
:1021300020680168490849000160204600F024FE3B
:102140000128EDD0A06A002802D0204600F048FD0A
:10215000206841680922D202914341602068816869
:102160002A229143816020680168012211430160A5
:10217000204600F09BFD70BDF0B587B006461421E7
:102180006846FEF7AAF8474D336847480222012106
:102190000024AB4231D1444B40331F688D032F43A1
:1021A0001F601B682B400593436B13434363406BD5
:1021B00001AB1040059040200090122013C36946E7
:1021C0003A480494FEF752FD3A4D394828603320CE
:1021D00068601020EC60A8606C61AC61EC618020EC
:1021E0002C6228612846FEF7EFFC002801D0FEF79C
:1021F000A5F9B567AE6207B0F0BD2F4DAB42FAD17D
:10220000C56B01235B041D43C563C56B1D4005956C
:10221000436B0B434363406B6B46C007C00F059095
:102220000C2015C304910520039469460007FEF7AE
:102230001DFD1F481F4D28385C352860AC60EC60E0
:102240006C61AC618027EC612F6134202C62686086
:102250002846FEF7B9FC002801D0FEF76FF9F567B4
:10226000AE62144D1248B8351438286035206860C5
:1022700029461020083191C16C61AC61EC6128469F
:102280002C62FEF7A1FC002801D0FEF757F9B567D4
:10229000002211461C20AE62FEF764FF1C20FEF7F0
:1022A00055FFA8E70038014000100240000400502C
:1022B00030000240C8030020004400407047FEE7A1
:1022C0008068C007C00F704780684007C00F704724
:1022D000026807239B059A430A430260704710B5C2
:1022E00043690424214007248C40A3438A401343BC
:1022F000436110BD3EB5002418480094019416496E
:10230000029401608460C460090504614160042195
:1023100041610476447684760121C1610146203111
:102320000C70446284620C730463446384630C77AE
:10233000C464FEF717FA002801D0FEF7FFF808483A
:1023400000900194694602940448FEF7F9F80028C9
:1023500001D0FEF7F3F83EBD00240140100000203C
:102360000004002808B51048816B012211438163E5
:10237000806B10400022009011460920FEF7F2FE0B
:102380000920FEF7E3FE002211460A20FEF7EAFECE
:102390000A20FEF7DBFE002211460B20FEF7E2FECC
:1023A0000B20FEF7D3FE08BD0010024070B586B0CA
:1023B00014216846FDF791FF1848426B02210A4339
:1023C0004263426B0A400592426B04210A43426316
:1023D000426B0A400592416B012529434163406BE2
:1023E0000526284036070590002230213046FEF7AA
:1023F000E9FCE8030024009001946946029408482F
:10240000FEF734FC30200090029469460195039455
:102410003046FEF72BFC06B070BD000000100240F5
:102420000008005010B5134811490160124941607D
:10243000002181600161416181610122C161C2604D
:102440000162FEF74FFD002801D0FEF777F800216A
:102450000848FEF7FEFC002801D0FEF76FF80021C7
:102460000448FEF71BFD002801D0FEF767F810BDF9
:102470000054004074000020BC7D701010B513485B
:10248000114901601249416000218160016141618F
:1024900081610122C161C2600162FEF723FD002853
:1024A00001D0FEF74BF800210848FEF7D2FC0028C7
:1024B00001D0FEF743F800210448FEF7EFFC0028A6
:1024C00001D0FEF73BF810BD00580040C0000020CE
:1024D000BC7D701010B588B000240594069418488F
:1024E00003940494009401941449029401603F21E0
:1024F000846041600461446112498461C160FFF7F6
:102500007FFA002801D0FEF719F80120000303909C
:1025100003A90B48FFF7C4FA002801D0FEF70EF814
:1025200000940194694606480294FFF733FA0028A4
:1025300001D0FEF703F808B010BD0000002C0140E8
:10254000C4010020E703000010B58EB000240794FA
:10255000089409940A940B940C941C2168460D94D9
:10256000FDF7BBFE01212448890701600321846037
:102570004160046121498461C160FFF741FA00288C
:1025800001D0FDF7DBFF01200003079007A91A48DF
:10259000FFF786FA002801D0FDF7D0FF1648FFF7B5
:1025A000B0FB002801D0FDF7C9FF0B940BA912481E
:1025B0000D94FFF7EFF9002801D0FDF7BFFF602071
:1025C0000090019402940022694604940A48FFF79F
:1025D00009FB002801D0FDF7B1FF04226946064837
:1025E000FFF700FB002801D0FDF7A8FF0248FFF726
:1025F000C3FA0EB010BD0000100200200F2700002B
:1026000010B58EB000240794089409940A940B9492
:102610000C941C2168460D94FDF75FFE2448234965
:102620000160032184604160046122498461C160CA
:10263000FFF7E6F9002801D0FDF780FF0120000335
:10264000079007A91A48FFF72BFA002801D0FDF7D9
:1026500075FF1748FFF755FB002801D0FDF76EFF07
:102660000B940BA912480D94FFF794F9002801D0A0
:10267000FDF764FF602000900194029400226946F7
:1026800004940B48FFF7AEFA002801D0FDF756FF7F
:10269000042269460648FFF7A5FA002801D0FDF795
:1026A0004DFF0348FFF768FA0EB010BD000400406C
:1026B0005C0200200F27000010B518481649016081
:1026C000E1214902416000218160C16001618161B5
:1026D000C16101620C22416242618162FEF77EFBB0
:1026E000002801D0FDF72AFF00210C48FFF774FBFA
:1026F000002801D0FDF722FF00210848FFF748FB22
:10270000002801D0FDF71AFF0448FFF721FB00283D
:1027100001D0FDF713FF10BD00380140A8020020D2
:1027200010B50D480B490160E121490241600021CB
:102730008160C16001618161C16101620C224162FD
:1027400042618162FFF7E2FC002801D0FDF7F6FE4E
:1027500010BD00000044004038030020FEE7704731
:10276000704710B5FEF79CFC10BD000030B59DB061
:1027700038216846FDF7B1FD0024189419941A9485
:1027800028210EA81B94FDF7A8FD01204002FEF7AA
:10279000EDFC0225E80103900095402005900820FB
:1027A0000A9080030B90079500020C900895000199
:1027B00004940D9009946846FEF7DCFE002801D0D1
:1027C00072B6FEE7072018901A94022119951B94FF
:1027D00018A8FEF7C9FD002801D072B6FEE7074829
:1027E00011940E900F94159416940EA8FEF7E4FC25
:1027F000002801D072B6FEE71DB030BD2140200098
:1028000070470000F0B502681A4B0124A4071A4D66
:10281000984203D0A04201D0A84203D17026B2430F
:102820004E683243154E164F98420AD0A04208D047
:10283000A84206D0134CA04203D0B04201D0B84207
:1028400004D103242402A243CC6822438024A2435F
:102850004C69224302608A68C2620A6882629842B6
:1028600003D0B04201D0B84201D10969016301210E
:102870004161F0BD002C01400004004000440140D3
:10288000004801400020004030B58468FF252D023B
:102890001B021343AC430B432343836030BD000052
:1028A0008268034B1A400A4307210A43826070473B
:1028B0008FFFCFFFF0B5026A520852000262056A2C
:1028C00043688269164C184E224092080C689200A8
:1028D0001443022295438A682A43124DA84204D029
:1028E000B04202D0114FB84206D10827BA43CF6890
:1028F0001743042297433A46A84204D0B04202D07C
:102900000A4DA84206D103252D02AB434D691D4354
:102910008B692B4343608461496841630262F0BD67
:102920008FFFFEFF002C01400044014000480140A1
:1029300070B5026A10239A430262046A436882698E
:10294000164D2A4003252D02AA430D682D0215437A
:10295000202294438A6812012243114CA04208D1DC
:102960001446CA688026B443120122434024A2437D
:1029700005E00C4CA04202D00B4CA04208D103242D
:10298000A402A3434C69A4001C438B699B0023430E
:102990004360856149688163026270BDFF8FFFFEFD
:1029A000002C0140004401400048014070B5026A1B
:1029B000FF2301339A430262046A4368C269164DD9
:1029C0002A4092080D689200154301225202944356
:1029D0008A6812022243114CA04208D11446CA68E8
:1029E000C614B443120222430415A24305E00C4C62
:1029F000A04202D00B4CA04208D103242403A343DD
:102A00004C6924011C438B691B0123434360C5614E
:102A10004968C163026270BD8FFFFEFF002C014058
:102A2000004401400048014030B5026A01231B0305
:102A30009A430262046A4568C269124B1A40032332
:102A40001B029A430B681B02134301225203944357
:102A50008A68120322430C4CA04205D00B4CA042C2
:102A600002D00B4CA04206D12C460125AD03AC434D
:102A70004D69AD0125434560C36149680164026247
:102A800030BD0000FF8FFFFE002C014000440140DC
:102A90000048014070B5026A01263604B243026262
:102AA000036A4268446D0E4D2C400D682543740046
:102AB000A3430C8924041C430A4B984205D00A4BBB
:102AC000984202D0094B984203D14B69B2431B0292
:102AD0001A434260456549688165046270BD000023
:102AE0008FFFFEFF002C01400044014000480140E0
:102AF00070B5026A01231B059A430262036A4268A9
:102B0000456D104C25400C6824022C4301256D05B1
:102B1000AB430D892D051D430B4B984205D00B4B44
:102B2000984202D00A4B984206D101261346B604B9
:102B30004A69B34392021A43426044654968C165D9
:102B4000056270BDFF8FFFFE002C01400044014074
:102B50000048014030B5036A046A640864000462F6
:102B60008469F025AC43120122430A24A3430B439A
:102B70008261036230BD30B5036A1024A34303624F
:102B80008469036A0F252D031203AC432243A0245A
:102B9000A343090119438261016230BDF8B50446BF
:102BA000416E4034002915D00068816880680901B1
:102BB0004D0F0A4E400F3746315C083F385CC0006D
:102BC000FDF78DFB6085785D715DC000FDF787FBCB
:102BD0002085F8BD01206085FAE700000E3100086D
:102BE00010B5018DC90707D001684A6801235B044D
:102BF0009A43C36A1A434A60018D890707D5016861
:102C00004A6801231B049A43036B1A434A60018DEF
:102C1000490707D501684A6801239B049A43436B1F
:102C20001A434A60018D090707D501684A680123E4
:102C3000DB039A43836B1A434A60018DC90607D5AB
:102C40000268916801231B039943C36B1943916088
:102C5000018D890607D501688A6801235B039A43C1
:102C6000036C1A438A60018D490612D503685A68BD
:102C700001210905446C8A4322435A60426C8A420E
:102C800007D10268516803235B059943836C19439C
:102C90005160018D090607D501684A680123DB04EC
:102CA000C06C9A4302434A6010BD0000FEB5054661
:102CB000002680350446EE60FEF78AF80190206811
:102CC0000068124F000709D501210097002249052D
:102CD0002046019B00F05EF900280DD120680068B5
:102CE00040070BD501210097002289052046019B52
:102CF00000F050F9002801D00320FEBD20206860BC
:102D0000A860E6662E700020FEBD0000FFFFFF01F8
:102D100010B5806A002201464031CA83CA82FFF79B
:102D200080F810BD10B5EFF31081012282F31088F6
:102D300002681368FF242134A343136081F31088D1
:102D4000EFF31081012282F31088026893680D4C22
:102D50002340936081F31088C16E01290BD1EFF3FA
:102D60001081012282F31088026813681024A343A3
:102D7000136081F31088202288210A500021C16647
:102D8000016710BDFEFFFFEFF8B5044601688068DB
:102D90002369E5691843636900262B431843734A86
:102DA0000B68734D2B4003430B6021684868032375
:102DB0001B039843E368184348602168A069914267
:102DC00001D0236A18438B686A4D2B4003438B6004
:102DD0002068C16A636A090909011943C162664929
:102DE000236866488B420AD140698007800F09D06A
:102DF00001282CD0022828D0032816D113E06049DE
:102E00008B4201D1002111E093420ED14169032090
:102E1000800201400AD001208002091A17D0091A45
:102E200013D0814201D1082100E010210120554D2D
:102E3000554FC00393423BD100290AD0022911D03B
:102E4000042909D008297DD10BE00221EEE70421F5
:102E5000ECE7FEF735FB01E0FEF746FB050001D18C
:102E60007AE00546606A4000395A28460091FDF72D
:102E700036FA676879007918814269D83903814246
:102E800066D3002328461946009AFDF787F9020EFB
:102E900009020302780811431818002251413A46EA
:102EA0000023FDF77BF903210902411A374A4DE05F
:102EB000E269824228D1002906D0022907D00429DC
:102EC00007D0082944D108E0FEF7FAFA03E02846C3
:102ED00003E0FEF709FB00283ED0616A4900795AF9
:102EE000FDF7FDF9616840004A088018FDF7F7F921
:102EF00080B20146264A1039914229D8511C01401E
:102F00000007400F084325E0002906D0022907D01A
:102F1000042907D008291BD108E0FEF7D1FA03E005
:102F2000284603E0FEF7E0FA002815D0616A490060
:102F3000795AFDF7D4F961684A088018FDF7CFF98E
:102F400080B200E004E00146114A1039914201D9F3
:102F5000012601E02168C8602046012140304185FA
:102F600001850020206760673046F8BD0080004082
:102F7000F369FFCFFFF4FF11003801404010024019
:102F8000004400400024F400EE300008FFFC0F0075
:102F9000EFFF0000FFB581B00546174604468035B7
:102FA0000A9E54E0701C52D0FDF712FF0499401A9B
:102FB000B0422FD8002E2DD020680168490746D591
:102FC000C069C043000542D401202168C0020862E4
:102FD000EFF31080012181F3108821680B68FF2234
:102FE000A13293430B6080F31088EFF3108001212E
:102FF00081F3108821688A68520852008A6080F341
:10300000108820206860A860E860002028700320F5
:1030100005B0F0BDEFF31080012181F31088216825
:103020000A68FF23A1339A430A6080F31088EFF304
:103030001080012181F3108821688A6852085200AB
:103040008A6080F3108820206860A860DDE720682F
:10305000C1690298884304D00020B842A2D0002061
:10306000D6E70120F9E7000010B50248FEF7DAFEC6
:1030700010BD0000380300208307FF22DB0E9A40BA
:103080008907090E9940002808DB830809489B003E
:103090001B18186890430843186070470007000F1A
:1030A0000838830804489B001B18D86990430843DC
:1030B000D861704700E400E000ED00E0FDF7F8FFA4
:1030C000FFF754FBFFF772F9FFF714F9FFF7AAF9BE
:1030D000FFF7D4F9FFF738FAFFF792FAFFF7ECFAA7
:1030E000FFF740F9FFF71CFBFFF7F4F9FEE70100DB
:1030F00002000400060008000A000C001000200076
:1031000040008000000101010103070100000804E4
:10311000020408010101000000000000000000009E
:10312000000000000000000000000000000000009F
:10313000000000000000000001000000020000008C
:10314000030000000400000006000000070000006B
:10315000080000000900000000000000000000005E
:10316000000000000000000001000000020000005C
:103170000300000004000000983100080000002057
:103180001000000004010008A83100081000002011
:10319000300B0000200100080100000004000000C6
:0831A000000000000024F4000F
:04000005080000C12E
:00000001FF
